{
  "_format": "hh-sol-artifact-1",
  "contractName": "CelebrityContract",
  "sourceName": "contracts/CelebrityContract.sol",
  "abi": [
    {
      "inputs": [],
      "stateMutability": "nonpayable",
      "type": "constructor"
    },
    {
      "anonymous": false,
      "inputs": [
        {
          "indexed": false,
          "internalType": "uint256",
          "name": "id",
          "type": "uint256"
        },
        {
          "indexed": true,
          "internalType": "address",
          "name": "owner",
          "type": "address"
        },
        {
          "indexed": false,
          "internalType": "string",
          "name": "name",
          "type": "string"
        },
        {
          "indexed": false,
          "internalType": "uint256",
          "name": "price",
          "type": "uint256"
        },
        {
          "indexed": false,
          "internalType": "uint256",
          "name": "responseTime",
          "type": "uint256"
        }
      ],
      "name": "CelebrityCreated",
      "type": "event"
    },
    {
      "anonymous": false,
      "inputs": [
        {
          "indexed": false,
          "internalType": "uint256",
          "name": "id",
          "type": "uint256"
        },
        {
          "indexed": true,
          "internalType": "address",
          "name": "owner",
          "type": "address"
        }
      ],
      "name": "CelebrityDeleted",
      "type": "event"
    },
    {
      "anonymous": false,
      "inputs": [
        {
          "indexed": false,
          "internalType": "uint256",
          "name": "id",
          "type": "uint256"
        },
        {
          "indexed": true,
          "internalType": "address",
          "name": "owner",
          "type": "address"
        },
        {
          "indexed": false,
          "internalType": "string",
          "name": "name",
          "type": "string"
        },
        {
          "indexed": false,
          "internalType": "uint256",
          "name": "price",
          "type": "uint256"
        },
        {
          "indexed": false,
          "internalType": "uint256",
          "name": "responseTime",
          "type": "uint256"
        }
      ],
      "name": "CelebrityUpdated",
      "type": "event"
    },
    {
      "inputs": [
        {
          "internalType": "address",
          "name": "",
          "type": "address"
        }
      ],
      "name": "celebrities",
      "outputs": [
        {
          "internalType": "uint256",
          "name": "id",
          "type": "uint256"
        },
        {
          "internalType": "string",
          "name": "name",
          "type": "string"
        },
        {
          "internalType": "uint256",
          "name": "price",
          "type": "uint256"
        },
        {
          "internalType": "uint256",
          "name": "responseTime",
          "type": "uint256"
        },
        {
          "internalType": "bool",
          "name": "exists",
          "type": "bool"
        }
      ],
      "stateMutability": "view",
      "type": "function"
    },
    {
      "inputs": [
        {
          "internalType": "uint256",
          "name": "",
          "type": "uint256"
        }
      ],
      "name": "celebrityAddresses",
      "outputs": [
        {
          "internalType": "address",
          "name": "",
          "type": "address"
        }
      ],
      "stateMutability": "view",
      "type": "function"
    },
    {
      "inputs": [
        {
          "internalType": "string",
          "name": "name",
          "type": "string"
        },
        {
          "internalType": "uint256",
          "name": "price",
          "type": "uint256"
        },
        {
          "internalType": "uint256",
          "name": "responseTime",
          "type": "uint256"
        }
      ],
      "name": "createCelebrity",
      "outputs": [],
      "stateMutability": "nonpayable",
      "type": "function"
    },
    {
      "inputs": [
        {
          "internalType": "address",
          "name": "addr",
          "type": "address"
        }
      ],
      "name": "deleteCelebrity",
      "outputs": [],
      "stateMutability": "nonpayable",
      "type": "function"
    },
    {
      "inputs": [
        {
          "internalType": "address",
          "name": "addr",
          "type": "address"
        }
      ],
      "name": "getCelebrity",
      "outputs": [
        {
          "internalType": "uint256",
          "name": "id",
          "type": "uint256"
        },
        {
          "internalType": "string",
          "name": "name",
          "type": "string"
        },
        {
          "internalType": "uint256",
          "name": "price",
          "type": "uint256"
        },
        {
          "internalType": "uint256",
          "name": "responseTime",
          "type": "uint256"
        }
      ],
      "stateMutability": "view",
      "type": "function"
    },
    {
      "inputs": [],
      "name": "getTotalSupply",
      "outputs": [
        {
          "internalType": "uint256",
          "name": "",
          "type": "uint256"
        }
      ],
      "stateMutability": "view",
      "type": "function"
    },
    {
      "inputs": [
        {
          "internalType": "string",
          "name": "name",
          "type": "string"
        },
        {
          "internalType": "uint256",
          "name": "price",
          "type": "uint256"
        },
        {
          "internalType": "uint256",
          "name": "responseTime",
          "type": "uint256"
        }
      ],
      "name": "updateCelebrity",
      "outputs": [],
      "stateMutability": "nonpayable",
      "type": "function"
    }
  ],
  "bytecode": "0x608060405234801561001057600080fd5b50610fbd806100206000396000f3fe608060405234801561001057600080fd5b506004361061007d5760003560e01c8063b6f662f71161005b578063b6f662f714610211578063c4e41b22146102e0578063ccff1046146102fe578063fad3c8e7146103cd5761007d565b8063509d202c146100825780635468d2491461015f578063829ae797146101cd575b600080fd5b6100c46004803603602081101561009857600080fd5b81019080803573ffffffffffffffffffffffffffffffffffffffff16906020019092919050505061049f565b604051808681526020018060200185815260200184815260200183151515158152602001828103825286818151815260200191508051906020019080838360005b83811015610120578082015181840152602081019050610105565b50505050905090810190601f16801561014d5780820380516001836020036101000a031916815260200191505b50965050505050505060405180910390f35b61018b6004803603602081101561017557600080fd5b810190808035906020019092919050505061057a565b604051808273ffffffffffffffffffffffffffffffffffffffff1673ffffffffffffffffffffffffffffffffffffffff16815260200191505060405180910390f35b61020f600480360360208110156101e357600080fd5b81019080803573ffffffffffffffffffffffffffffffffffffffff1690602001909291905050506105b6565b005b6102de6004803603606081101561022757600080fd5b810190808035906020019064010000000081111561024457600080fd5b82018360208201111561025657600080fd5b8035906020019184600183028401116401000000008311171561027857600080fd5b91908080601f016020809104026020016040519081016040528093929190818152602001838380828437600081840152601f19601f82011690508083019250505050505050919291929080359060200190929190803590602001909291905050506107b7565b005b6102e86109aa565b6040518082815260200191505060405180910390f35b6103cb6004803603606081101561031457600080fd5b810190808035906020019064010000000081111561033157600080fd5b82018360208201111561034357600080fd5b8035906020019184600183028401116401000000008311171561036557600080fd5b91908080601f016020809104026020016040519081016040528093929190818152602001838380828437600081840152601f19601f82011690508083019250505050505050919291929080359060200190929190803590602001909291905050506109b4565b005b61040f600480360360208110156103e357600080fd5b81019080803573ffffffffffffffffffffffffffffffffffffffff169060200190929190505050610cb0565b6040518085815260200180602001848152602001838152602001828103825285818151815260200191508051906020019080838360005b83811015610461578082015181840152602081019050610446565b50505050905090810190601f16801561048e5780820380516001836020036101000a031916815260200191505b509550505050505060405180910390f35b6000602052806000526040600020600091509050806000015490806001018054600181600116156101000203166002900480601f0160208091040260200160405190810160405280929190818152602001828054600181600116156101000203166002900480156105515780601f1061052657610100808354040283529160200191610551565b820191906000526020600020905b81548152906001019060200180831161053457829003601f168201915b5050505050908060020154908060030154908060040160009054906101000a900460ff16905085565b6001818154811061058757fe5b906000526020600020016000915054906101000a900473ffffffffffffffffffffffffffffffffffffffff1681565b3373ffffffffffffffffffffffffffffffffffffffff168173ffffffffffffffffffffffffffffffffffffffff1614610657576040517f08c379a00000000000000000000000000000000000000000000000000000000081526004018080602001828103825260158152602001807f596f7520617265206e6f7420746865206f776e6572000000000000000000000081525060200191505060405180910390fd5b60008060008373ffffffffffffffffffffffffffffffffffffffff1673ffffffffffffffffffffffffffffffffffffffff1681526020019081526020016000206000015490506000808373ffffffffffffffffffffffffffffffffffffffff1673ffffffffffffffffffffffffffffffffffffffff1681526020019081526020016000206000808201600090556001820160006106f49190610e69565b600282016000905560038201600090556004820160006101000a81549060ff021916905550506001818154811061072757fe5b9060005260206000200160006101000a81549073ffffffffffffffffffffffffffffffffffffffff021916905560016002600082825403925050819055508173ffffffffffffffffffffffffffffffffffffffff167fbfdbef73bebd880fc18c2e4262186a9f7b8a12a730d0a0c23ea6d97d55484983826040518082815260200191505060405180910390a25050565b826000803373ffffffffffffffffffffffffffffffffffffffff1673ffffffffffffffffffffffffffffffffffffffff168152602001908152602001600020600101908051906020019061080c929190610eb1565b50816000803373ffffffffffffffffffffffffffffffffffffffff1673ffffffffffffffffffffffffffffffffffffffff16815260200190815260200160002060020181905550806000803373ffffffffffffffffffffffffffffffffffffffff1673ffffffffffffffffffffffffffffffffffffffff168152602001908152602001600020600301819055503373ffffffffffffffffffffffffffffffffffffffff167fa13e2a6763c7267028984e9fdc1788e65f443f8aa9c52492282ea45085391f346000803373ffffffffffffffffffffffffffffffffffffffff1673ffffffffffffffffffffffffffffffffffffffff168152602001908152602001600020600001548585856040518085815260200180602001848152602001838152602001828103825285818151815260200191508051906020019080838360005b8381101561096857808201518184015260208101905061094d565b50505050905090810190601f1680156109955780820380516001836020036101000a031916815260200191505b509550505050505060405180910390a2505050565b6000600254905090565b6000803373ffffffffffffffffffffffffffffffffffffffff1673ffffffffffffffffffffffffffffffffffffffff16815260200190815260200160002060040160009054906101000a900460ff1615610a76576040517f08c379a000000000000000000000000000000000000000000000000000000000815260040180806020018281038252601b8152602001807f54686973206164647265737320616c726561647920657869737473000000000081525060200191505060405180910390fd5b610a7e610f31565b6040518060a00160405280600081526020018581526020018481526020018381526020016001151581525090506001339080600181540180825580915050600190039060005260206000200160009091909190916101000a81548173ffffffffffffffffffffffffffffffffffffffff021916908373ffffffffffffffffffffffffffffffffffffffff16021790555060006001808054905003905080826000018181525050816000803373ffffffffffffffffffffffffffffffffffffffff1673ffffffffffffffffffffffffffffffffffffffff168152602001908152602001600020600082015181600001556020820151816001019080519060200190610b89929190610eb1565b50604082015181600201556060820151816003015560808201518160040160006101000a81548160ff02191690831515021790555090505060016002600082825401925050819055503373ffffffffffffffffffffffffffffffffffffffff167f62b5a5d26a207ed5e173c94df954b483a9d3fb94d38dd37b98f6113cdec94de8828460200151856040015186606001516040518085815260200180602001848152602001838152602001828103825285818151815260200191508051906020019080838360005b83811015610c6c578082015181840152602081019050610c51565b50505050905090810190601f168015610c995780820380516001836020036101000a031916815260200191505b509550505050505060405180910390a25050505050565b600060606000806000808673ffffffffffffffffffffffffffffffffffffffff1673ffffffffffffffffffffffffffffffffffffffff168152602001908152602001600020600001546000808773ffffffffffffffffffffffffffffffffffffffff1673ffffffffffffffffffffffffffffffffffffffff1681526020019081526020016000206001016000808873ffffffffffffffffffffffffffffffffffffffff1673ffffffffffffffffffffffffffffffffffffffff168152602001908152602001600020600201546000808973ffffffffffffffffffffffffffffffffffffffff1673ffffffffffffffffffffffffffffffffffffffff16815260200190815260200160002060030154828054600181600116156101000203166002900480601f016020809104026020016040519081016040528092919081815260200182805460018160011615610100020316600290048015610e535780601f10610e2857610100808354040283529160200191610e53565b820191906000526020600020905b815481529060010190602001808311610e3657829003601f168201915b5050505050925093509350935093509193509193565b50805460018160011615610100020316600290046000825580601f10610e8f5750610eae565b601f016020900490600052602060002090810190610ead9190610f62565b5b50565b828054600181600116156101000203166002900490600052602060002090601f016020900481019282601f10610ef257805160ff1916838001178555610f20565b82800160010185558215610f20579182015b82811115610f1f578251825591602001919060010190610f04565b5b509050610f2d9190610f62565b5090565b6040518060a00160405280600081526020016060815260200160008152602001600081526020016000151581525090565b610f8491905b80821115610f80576000816000905550600101610f68565b5090565b9056fea2646970667358221220898ba46190815c6a31ebe03eccdeead8d6ff0c311c7580b6589ac03df0b6fa3a64736f6c63430006080033",
  "linkReferences": {},
  "deployedLinkReferences": {}
}