{
  "_format": "hh-sol-artifact-1",
  "contractName": "CelebrityContract",
  "sourceName": "contracts/CelebrityContract.sol",
  "abi": [
    {
      "inputs": [],
      "stateMutability": "nonpayable",
      "type": "constructor"
    },
    {
      "anonymous": false,
      "inputs": [
        {
          "indexed": true,
          "internalType": "address",
          "name": "owner",
          "type": "address"
        },
        {
          "indexed": false,
          "internalType": "string",
          "name": "name",
          "type": "string"
        },
        {
          "indexed": false,
          "internalType": "uint256",
          "name": "price",
          "type": "uint256"
        },
        {
          "indexed": false,
          "internalType": "uint256",
          "name": "responseTime",
          "type": "uint256"
        }
      ],
      "name": "CelebrityCreated",
      "type": "event"
    },
    {
      "anonymous": false,
      "inputs": [
        {
          "indexed": true,
          "internalType": "address",
          "name": "owner",
          "type": "address"
        }
      ],
      "name": "CelebrityDeleted",
      "type": "event"
    },
    {
      "anonymous": false,
      "inputs": [
        {
          "indexed": true,
          "internalType": "address",
          "name": "owner",
          "type": "address"
        },
        {
          "indexed": false,
          "internalType": "string",
          "name": "name",
          "type": "string"
        },
        {
          "indexed": false,
          "internalType": "uint256",
          "name": "price",
          "type": "uint256"
        },
        {
          "indexed": false,
          "internalType": "uint256",
          "name": "responseTime",
          "type": "uint256"
        }
      ],
      "name": "CelebrityUpdated",
      "type": "event"
    },
    {
      "inputs": [
        {
          "internalType": "address",
          "name": "",
          "type": "address"
        }
      ],
      "name": "celebrities",
      "outputs": [
        {
          "internalType": "string",
          "name": "name",
          "type": "string"
        },
        {
          "internalType": "uint256",
          "name": "price",
          "type": "uint256"
        },
        {
          "internalType": "uint256",
          "name": "responseTime",
          "type": "uint256"
        }
      ],
      "stateMutability": "view",
      "type": "function"
    },
    {
      "inputs": [
        {
          "internalType": "string",
          "name": "name",
          "type": "string"
        },
        {
          "internalType": "uint256",
          "name": "price",
          "type": "uint256"
        },
        {
          "internalType": "uint256",
          "name": "responseTime",
          "type": "uint256"
        }
      ],
      "name": "createCelebrity",
      "outputs": [],
      "stateMutability": "nonpayable",
      "type": "function"
    },
    {
      "inputs": [],
      "name": "deleteCelebrity",
      "outputs": [],
      "stateMutability": "nonpayable",
      "type": "function"
    },
    {
      "inputs": [
        {
          "internalType": "address",
          "name": "addr",
          "type": "address"
        }
      ],
      "name": "getCelebrity",
      "outputs": [
        {
          "internalType": "string",
          "name": "name",
          "type": "string"
        },
        {
          "internalType": "uint256",
          "name": "price",
          "type": "uint256"
        },
        {
          "internalType": "uint256",
          "name": "responseTime",
          "type": "uint256"
        }
      ],
      "stateMutability": "view",
      "type": "function"
    },
    {
      "inputs": [
        {
          "internalType": "string",
          "name": "name",
          "type": "string"
        },
        {
          "internalType": "uint256",
          "name": "price",
          "type": "uint256"
        },
        {
          "internalType": "uint256",
          "name": "responseTime",
          "type": "uint256"
        }
      ],
      "name": "updateCelebrity",
      "outputs": [],
      "stateMutability": "nonpayable",
      "type": "function"
    }
  ],
  "bytecode": "0x608060405234801561001057600080fd5b50610ac8806100206000396000f3fe608060405234801561001057600080fd5b50600436106100575760003560e01c8063509d202c1461005c5780636756000f14610127578063b6f662f714610131578063ccff104614610200578063fad3c8e7146102cf575b600080fd5b61009e6004803603602081101561007257600080fd5b81019080803573ffffffffffffffffffffffffffffffffffffffff16906020019092919050505061039a565b6040518080602001848152602001838152602001828103825285818151815260200191508051906020019080838360005b838110156100ea5780820151818401526020810190506100cf565b50505050905090810190601f1680156101175780820380516001836020036101000a031916815260200191505b5094505050505060405180910390f35b61012f61045c565b005b6101fe6004803603606081101561014757600080fd5b810190808035906020019064010000000081111561016457600080fd5b82018360208201111561017657600080fd5b8035906020019184600183028401116401000000008311171561019857600080fd5b91908080601f016020809104026020016040519081016040528093929190818152602001838380828437600081840152601f19601f8201169050808301925050505050505091929192908035906020019092919080359060200190929190505050610502565b005b6102cd6004803603606081101561021657600080fd5b810190808035906020019064010000000081111561023357600080fd5b82018360208201111561024557600080fd5b8035906020019184600183028401116401000000008311171561026757600080fd5b91908080601f016020809104026020016040519081016040528093929190818152602001838380828437600081840152601f19601f82011690508083019250505050505050919291929080359060200190929190803590602001909291905050506106ac565b005b610311600480360360208110156102e557600080fd5b81019080803573ffffffffffffffffffffffffffffffffffffffff169060200190929190505050610819565b6040518080602001848152602001838152602001828103825285818151815260200191508051906020019080838360005b8381101561035d578082015181840152602081019050610342565b50505050905090810190601f16801561038a5780820380516001836020036101000a031916815260200191505b5094505050505060405180910390f35b6000602052806000526040600020600091509050806000018054600181600116156101000203166002900480601f0160208091040260200160405190810160405280929190818152602001828054600181600116156101000203166002900480156104465780601f1061041b57610100808354040283529160200191610446565b820191906000526020600020905b81548152906001019060200180831161042957829003601f168201915b5050505050908060010154908060020154905083565b6000803373ffffffffffffffffffffffffffffffffffffffff1673ffffffffffffffffffffffffffffffffffffffff168152602001908152602001600020600080820160006104ab919061098c565b6001820160009055600282016000905550503373ffffffffffffffffffffffffffffffffffffffff167f9a0087094074d908f64f71c80636422dc52eb8ab2153507c3636969b2f408fb060405160405180910390a2565b826000803373ffffffffffffffffffffffffffffffffffffffff1673ffffffffffffffffffffffffffffffffffffffff16815260200190815260200160002060000190805190602001906105579291906109d4565b50816000803373ffffffffffffffffffffffffffffffffffffffff1673ffffffffffffffffffffffffffffffffffffffff16815260200190815260200160002060010181905550806000803373ffffffffffffffffffffffffffffffffffffffff1673ffffffffffffffffffffffffffffffffffffffff168152602001908152602001600020600201819055503373ffffffffffffffffffffffffffffffffffffffff167f3acb17ab280ddc13698d1bde653a6548188aa07bd703909ab385ec907336c2628484846040518080602001848152602001838152602001828103825285818151815260200191508051906020019080838360005b8381101561066b578082015181840152602081019050610650565b50505050905090810190601f1680156106985780820380516001836020036101000a031916815260200191505b5094505050505060405180910390a2505050565b6106b4610a54565b6040518060600160405280858152602001848152602001838152509050806000803373ffffffffffffffffffffffffffffffffffffffff1673ffffffffffffffffffffffffffffffffffffffff168152602001908152602001600020600082015181600001908051906020019061072c9291906109d4565b5060208201518160010155604082015181600201559050503373ffffffffffffffffffffffffffffffffffffffff167f2d11312ea58296534f84c0d7e129483adcd2da500aa3e71fb42ce8a426e732708260000151836020015184604001516040518080602001848152602001838152602001828103825285818151815260200191508051906020019080838360005b838110156107d75780820151818401526020810190506107bc565b50505050905090810190601f1680156108045780820380516001836020036101000a031916815260200191505b5094505050505060405180910390a250505050565b60606000806000808573ffffffffffffffffffffffffffffffffffffffff1673ffffffffffffffffffffffffffffffffffffffff1681526020019081526020016000206000016000808673ffffffffffffffffffffffffffffffffffffffff1673ffffffffffffffffffffffffffffffffffffffff168152602001908152602001600020600101546000808773ffffffffffffffffffffffffffffffffffffffff1673ffffffffffffffffffffffffffffffffffffffff16815260200190815260200160002060020154828054600181600116156101000203166002900480601f0160208091040260200160405190810160405280929190818152602001828054600181600116156101000203166002900480156109785780601f1061094d57610100808354040283529160200191610978565b820191906000526020600020905b81548152906001019060200180831161095b57829003601f168201915b505050505092509250925092509193909250565b50805460018160011615610100020316600290046000825580601f106109b257506109d1565b601f0160209004906000526020600020908101906109d09190610a75565b5b50565b828054600181600116156101000203166002900490600052602060002090601f016020900481019282601f10610a1557805160ff1916838001178555610a43565b82800160010185558215610a43579182015b82811115610a42578251825591602001919060010190610a27565b5b509050610a509190610a75565b5090565b60405180606001604052806060815260200160008152602001600081525090565b5b80821115610a8e576000816000905550600101610a76565b509056fea264697066735822122074e20ddc9c964d9623f5b1ba95b8064301ba0ed32f49778012f442db1bb8b56364736f6c63430007030033",
  "linkReferences": {},
  "deployedLinkReferences": {}
}