{
  "_format": "hh-sol-artifact-1",
  "contractName": "Media",
  "sourceName": "@zoralabs/core/dist/contracts/Media.sol",
  "abi": [
    {
      "inputs": [
        {
          "internalType": "address",
          "name": "marketContractAddr",
          "type": "address"
        }
      ],
      "stateMutability": "nonpayable",
      "type": "constructor"
    },
    {
      "anonymous": false,
      "inputs": [
        {
          "indexed": true,
          "internalType": "address",
          "name": "owner",
          "type": "address"
        },
        {
          "indexed": true,
          "internalType": "address",
          "name": "approved",
          "type": "address"
        },
        {
          "indexed": true,
          "internalType": "uint256",
          "name": "tokenId",
          "type": "uint256"
        }
      ],
      "name": "Approval",
      "type": "event"
    },
    {
      "anonymous": false,
      "inputs": [
        {
          "indexed": true,
          "internalType": "address",
          "name": "owner",
          "type": "address"
        },
        {
          "indexed": true,
          "internalType": "address",
          "name": "operator",
          "type": "address"
        },
        {
          "indexed": false,
          "internalType": "bool",
          "name": "approved",
          "type": "bool"
        }
      ],
      "name": "ApprovalForAll",
      "type": "event"
    },
    {
      "anonymous": false,
      "inputs": [
        {
          "indexed": true,
          "internalType": "uint256",
          "name": "_tokenId",
          "type": "uint256"
        },
        {
          "indexed": false,
          "internalType": "address",
          "name": "owner",
          "type": "address"
        },
        {
          "indexed": false,
          "internalType": "string",
          "name": "_uri",
          "type": "string"
        }
      ],
      "name": "TokenMetadataURIUpdated",
      "type": "event"
    },
    {
      "anonymous": false,
      "inputs": [
        {
          "indexed": true,
          "internalType": "uint256",
          "name": "_tokenId",
          "type": "uint256"
        },
        {
          "indexed": false,
          "internalType": "address",
          "name": "owner",
          "type": "address"
        },
        {
          "indexed": false,
          "internalType": "string",
          "name": "_uri",
          "type": "string"
        }
      ],
      "name": "TokenURIUpdated",
      "type": "event"
    },
    {
      "anonymous": false,
      "inputs": [
        {
          "indexed": true,
          "internalType": "address",
          "name": "from",
          "type": "address"
        },
        {
          "indexed": true,
          "internalType": "address",
          "name": "to",
          "type": "address"
        },
        {
          "indexed": true,
          "internalType": "uint256",
          "name": "tokenId",
          "type": "uint256"
        }
      ],
      "name": "Transfer",
      "type": "event"
    },
    {
      "inputs": [],
      "name": "MINT_WITH_SIG_TYPEHASH",
      "outputs": [
        {
          "internalType": "bytes32",
          "name": "",
          "type": "bytes32"
        }
      ],
      "stateMutability": "view",
      "type": "function"
    },
    {
      "inputs": [],
      "name": "PERMIT_TYPEHASH",
      "outputs": [
        {
          "internalType": "bytes32",
          "name": "",
          "type": "bytes32"
        }
      ],
      "stateMutability": "view",
      "type": "function"
    },
    {
      "inputs": [
        {
          "internalType": "uint256",
          "name": "tokenId",
          "type": "uint256"
        },
        {
          "components": [
            {
              "internalType": "uint256",
              "name": "amount",
              "type": "uint256"
            },
            {
              "internalType": "address",
              "name": "currency",
              "type": "address"
            },
            {
              "internalType": "address",
              "name": "bidder",
              "type": "address"
            },
            {
              "internalType": "address",
              "name": "recipient",
              "type": "address"
            },
            {
              "components": [
                {
                  "internalType": "uint256",
                  "name": "value",
                  "type": "uint256"
                }
              ],
              "internalType": "struct Decimal.D256",
              "name": "sellOnShare",
              "type": "tuple"
            }
          ],
          "internalType": "struct IMarket.Bid",
          "name": "bid",
          "type": "tuple"
        }
      ],
      "name": "acceptBid",
      "outputs": [],
      "stateMutability": "nonpayable",
      "type": "function"
    },
    {
      "inputs": [
        {
          "internalType": "address",
          "name": "to",
          "type": "address"
        },
        {
          "internalType": "uint256",
          "name": "tokenId",
          "type": "uint256"
        }
      ],
      "name": "approve",
      "outputs": [],
      "stateMutability": "nonpayable",
      "type": "function"
    },
    {
      "inputs": [
        {
          "internalType": "uint256",
          "name": "tokenId",
          "type": "uint256"
        },
        {
          "internalType": "address",
          "name": "recipient",
          "type": "address"
        }
      ],
      "name": "auctionTransfer",
      "outputs": [],
      "stateMutability": "nonpayable",
      "type": "function"
    },
    {
      "inputs": [
        {
          "internalType": "address",
          "name": "owner",
          "type": "address"
        }
      ],
      "name": "balanceOf",
      "outputs": [
        {
          "internalType": "uint256",
          "name": "",
          "type": "uint256"
        }
      ],
      "stateMutability": "view",
      "type": "function"
    },
    {
      "inputs": [],
      "name": "baseURI",
      "outputs": [
        {
          "internalType": "string",
          "name": "",
          "type": "string"
        }
      ],
      "stateMutability": "view",
      "type": "function"
    },
    {
      "inputs": [
        {
          "internalType": "uint256",
          "name": "tokenId",
          "type": "uint256"
        }
      ],
      "name": "burn",
      "outputs": [],
      "stateMutability": "nonpayable",
      "type": "function"
    },
    {
      "inputs": [
        {
          "internalType": "uint256",
          "name": "tokenId",
          "type": "uint256"
        }
      ],
      "name": "getApproved",
      "outputs": [
        {
          "internalType": "address",
          "name": "",
          "type": "address"
        }
      ],
      "stateMutability": "view",
      "type": "function"
    },
    {
      "inputs": [
        {
          "internalType": "address",
          "name": "owner",
          "type": "address"
        },
        {
          "internalType": "address",
          "name": "operator",
          "type": "address"
        }
      ],
      "name": "isApprovedForAll",
      "outputs": [
        {
          "internalType": "bool",
          "name": "",
          "type": "bool"
        }
      ],
      "stateMutability": "view",
      "type": "function"
    },
    {
      "inputs": [],
      "name": "marketContract",
      "outputs": [
        {
          "internalType": "address",
          "name": "",
          "type": "address"
        }
      ],
      "stateMutability": "view",
      "type": "function"
    },
    {
      "inputs": [
        {
          "components": [
            {
              "internalType": "string",
              "name": "tokenURI",
              "type": "string"
            },
            {
              "internalType": "string",
              "name": "metadataURI",
              "type": "string"
            },
            {
              "internalType": "bytes32",
              "name": "contentHash",
              "type": "bytes32"
            },
            {
              "internalType": "bytes32",
              "name": "metadataHash",
              "type": "bytes32"
            }
          ],
          "internalType": "struct IMedia.MediaData",
          "name": "data",
          "type": "tuple"
        },
        {
          "components": [
            {
              "components": [
                {
                  "internalType": "uint256",
                  "name": "value",
                  "type": "uint256"
                }
              ],
              "internalType": "struct Decimal.D256",
              "name": "prevOwner",
              "type": "tuple"
            },
            {
              "components": [
                {
                  "internalType": "uint256",
                  "name": "value",
                  "type": "uint256"
                }
              ],
              "internalType": "struct Decimal.D256",
              "name": "creator",
              "type": "tuple"
            },
            {
              "components": [
                {
                  "internalType": "uint256",
                  "name": "value",
                  "type": "uint256"
                }
              ],
              "internalType": "struct Decimal.D256",
              "name": "owner",
              "type": "tuple"
            }
          ],
          "internalType": "struct IMarket.BidShares",
          "name": "bidShares",
          "type": "tuple"
        }
      ],
      "name": "mint",
      "outputs": [],
      "stateMutability": "nonpayable",
      "type": "function"
    },
    {
      "inputs": [
        {
          "internalType": "address",
          "name": "creator",
          "type": "address"
        },
        {
          "components": [
            {
              "internalType": "string",
              "name": "tokenURI",
              "type": "string"
            },
            {
              "internalType": "string",
              "name": "metadataURI",
              "type": "string"
            },
            {
              "internalType": "bytes32",
              "name": "contentHash",
              "type": "bytes32"
            },
            {
              "internalType": "bytes32",
              "name": "metadataHash",
              "type": "bytes32"
            }
          ],
          "internalType": "struct IMedia.MediaData",
          "name": "data",
          "type": "tuple"
        },
        {
          "components": [
            {
              "components": [
                {
                  "internalType": "uint256",
                  "name": "value",
                  "type": "uint256"
                }
              ],
              "internalType": "struct Decimal.D256",
              "name": "prevOwner",
              "type": "tuple"
            },
            {
              "components": [
                {
                  "internalType": "uint256",
                  "name": "value",
                  "type": "uint256"
                }
              ],
              "internalType": "struct Decimal.D256",
              "name": "creator",
              "type": "tuple"
            },
            {
              "components": [
                {
                  "internalType": "uint256",
                  "name": "value",
                  "type": "uint256"
                }
              ],
              "internalType": "struct Decimal.D256",
              "name": "owner",
              "type": "tuple"
            }
          ],
          "internalType": "struct IMarket.BidShares",
          "name": "bidShares",
          "type": "tuple"
        },
        {
          "components": [
            {
              "internalType": "uint256",
              "name": "deadline",
              "type": "uint256"
            },
            {
              "internalType": "uint8",
              "name": "v",
              "type": "uint8"
            },
            {
              "internalType": "bytes32",
              "name": "r",
              "type": "bytes32"
            },
            {
              "internalType": "bytes32",
              "name": "s",
              "type": "bytes32"
            }
          ],
          "internalType": "struct IMedia.EIP712Signature",
          "name": "sig",
          "type": "tuple"
        }
      ],
      "name": "mintWithSig",
      "outputs": [],
      "stateMutability": "nonpayable",
      "type": "function"
    },
    {
      "inputs": [
        {
          "internalType": "address",
          "name": "",
          "type": "address"
        }
      ],
      "name": "mintWithSigNonces",
      "outputs": [
        {
          "internalType": "uint256",
          "name": "",
          "type": "uint256"
        }
      ],
      "stateMutability": "view",
      "type": "function"
    },
    {
      "inputs": [],
      "name": "name",
      "outputs": [
        {
          "internalType": "string",
          "name": "",
          "type": "string"
        }
      ],
      "stateMutability": "view",
      "type": "function"
    },
    {
      "inputs": [
        {
          "internalType": "uint256",
          "name": "tokenId",
          "type": "uint256"
        }
      ],
      "name": "ownerOf",
      "outputs": [
        {
          "internalType": "address",
          "name": "",
          "type": "address"
        }
      ],
      "stateMutability": "view",
      "type": "function"
    },
    {
      "inputs": [
        {
          "internalType": "address",
          "name": "spender",
          "type": "address"
        },
        {
          "internalType": "uint256",
          "name": "tokenId",
          "type": "uint256"
        },
        {
          "components": [
            {
              "internalType": "uint256",
              "name": "deadline",
              "type": "uint256"
            },
            {
              "internalType": "uint8",
              "name": "v",
              "type": "uint8"
            },
            {
              "internalType": "bytes32",
              "name": "r",
              "type": "bytes32"
            },
            {
              "internalType": "bytes32",
              "name": "s",
              "type": "bytes32"
            }
          ],
          "internalType": "struct IMedia.EIP712Signature",
          "name": "sig",
          "type": "tuple"
        }
      ],
      "name": "permit",
      "outputs": [],
      "stateMutability": "nonpayable",
      "type": "function"
    },
    {
      "inputs": [
        {
          "internalType": "address",
          "name": "",
          "type": "address"
        },
        {
          "internalType": "uint256",
          "name": "",
          "type": "uint256"
        }
      ],
      "name": "permitNonces",
      "outputs": [
        {
          "internalType": "uint256",
          "name": "",
          "type": "uint256"
        }
      ],
      "stateMutability": "view",
      "type": "function"
    },
    {
      "inputs": [
        {
          "internalType": "uint256",
          "name": "",
          "type": "uint256"
        }
      ],
      "name": "previousTokenOwners",
      "outputs": [
        {
          "internalType": "address",
          "name": "",
          "type": "address"
        }
      ],
      "stateMutability": "view",
      "type": "function"
    },
    {
      "inputs": [
        {
          "internalType": "uint256",
          "name": "tokenId",
          "type": "uint256"
        }
      ],
      "name": "removeAsk",
      "outputs": [],
      "stateMutability": "nonpayable",
      "type": "function"
    },
    {
      "inputs": [
        {
          "internalType": "uint256",
          "name": "tokenId",
          "type": "uint256"
        }
      ],
      "name": "removeBid",
      "outputs": [],
      "stateMutability": "nonpayable",
      "type": "function"
    },
    {
      "inputs": [
        {
          "internalType": "uint256",
          "name": "tokenId",
          "type": "uint256"
        }
      ],
      "name": "revokeApproval",
      "outputs": [],
      "stateMutability": "nonpayable",
      "type": "function"
    },
    {
      "inputs": [
        {
          "internalType": "address",
          "name": "from",
          "type": "address"
        },
        {
          "internalType": "address",
          "name": "to",
          "type": "address"
        },
        {
          "internalType": "uint256",
          "name": "tokenId",
          "type": "uint256"
        }
      ],
      "name": "safeTransferFrom",
      "outputs": [],
      "stateMutability": "nonpayable",
      "type": "function"
    },
    {
      "inputs": [
        {
          "internalType": "address",
          "name": "from",
          "type": "address"
        },
        {
          "internalType": "address",
          "name": "to",
          "type": "address"
        },
        {
          "internalType": "uint256",
          "name": "tokenId",
          "type": "uint256"
        },
        {
          "internalType": "bytes",
          "name": "_data",
          "type": "bytes"
        }
      ],
      "name": "safeTransferFrom",
      "outputs": [],
      "stateMutability": "nonpayable",
      "type": "function"
    },
    {
      "inputs": [
        {
          "internalType": "address",
          "name": "operator",
          "type": "address"
        },
        {
          "internalType": "bool",
          "name": "approved",
          "type": "bool"
        }
      ],
      "name": "setApprovalForAll",
      "outputs": [],
      "stateMutability": "nonpayable",
      "type": "function"
    },
    {
      "inputs": [
        {
          "internalType": "uint256",
          "name": "tokenId",
          "type": "uint256"
        },
        {
          "components": [
            {
              "internalType": "uint256",
              "name": "amount",
              "type": "uint256"
            },
            {
              "internalType": "address",
              "name": "currency",
              "type": "address"
            }
          ],
          "internalType": "struct IMarket.Ask",
          "name": "ask",
          "type": "tuple"
        }
      ],
      "name": "setAsk",
      "outputs": [],
      "stateMutability": "nonpayable",
      "type": "function"
    },
    {
      "inputs": [
        {
          "internalType": "uint256",
          "name": "tokenId",
          "type": "uint256"
        },
        {
          "components": [
            {
              "internalType": "uint256",
              "name": "amount",
              "type": "uint256"
            },
            {
              "internalType": "address",
              "name": "currency",
              "type": "address"
            },
            {
              "internalType": "address",
              "name": "bidder",
              "type": "address"
            },
            {
              "internalType": "address",
              "name": "recipient",
              "type": "address"
            },
            {
              "components": [
                {
                  "internalType": "uint256",
                  "name": "value",
                  "type": "uint256"
                }
              ],
              "internalType": "struct Decimal.D256",
              "name": "sellOnShare",
              "type": "tuple"
            }
          ],
          "internalType": "struct IMarket.Bid",
          "name": "bid",
          "type": "tuple"
        }
      ],
      "name": "setBid",
      "outputs": [],
      "stateMutability": "nonpayable",
      "type": "function"
    },
    {
      "inputs": [
        {
          "internalType": "bytes4",
          "name": "interfaceId",
          "type": "bytes4"
        }
      ],
      "name": "supportsInterface",
      "outputs": [
        {
          "internalType": "bool",
          "name": "",
          "type": "bool"
        }
      ],
      "stateMutability": "view",
      "type": "function"
    },
    {
      "inputs": [],
      "name": "symbol",
      "outputs": [
        {
          "internalType": "string",
          "name": "",
          "type": "string"
        }
      ],
      "stateMutability": "view",
      "type": "function"
    },
    {
      "inputs": [
        {
          "internalType": "uint256",
          "name": "index",
          "type": "uint256"
        }
      ],
      "name": "tokenByIndex",
      "outputs": [
        {
          "internalType": "uint256",
          "name": "",
          "type": "uint256"
        }
      ],
      "stateMutability": "view",
      "type": "function"
    },
    {
      "inputs": [
        {
          "internalType": "uint256",
          "name": "",
          "type": "uint256"
        }
      ],
      "name": "tokenContentHashes",
      "outputs": [
        {
          "internalType": "bytes32",
          "name": "",
          "type": "bytes32"
        }
      ],
      "stateMutability": "view",
      "type": "function"
    },
    {
      "inputs": [
        {
          "internalType": "uint256",
          "name": "",
          "type": "uint256"
        }
      ],
      "name": "tokenCreators",
      "outputs": [
        {
          "internalType": "address",
          "name": "",
          "type": "address"
        }
      ],
      "stateMutability": "view",
      "type": "function"
    },
    {
      "inputs": [
        {
          "internalType": "uint256",
          "name": "",
          "type": "uint256"
        }
      ],
      "name": "tokenMetadataHashes",
      "outputs": [
        {
          "internalType": "bytes32",
          "name": "",
          "type": "bytes32"
        }
      ],
      "stateMutability": "view",
      "type": "function"
    },
    {
      "inputs": [
        {
          "internalType": "uint256",
          "name": "tokenId",
          "type": "uint256"
        }
      ],
      "name": "tokenMetadataURI",
      "outputs": [
        {
          "internalType": "string",
          "name": "",
          "type": "string"
        }
      ],
      "stateMutability": "view",
      "type": "function"
    },
    {
      "inputs": [
        {
          "internalType": "address",
          "name": "owner",
          "type": "address"
        },
        {
          "internalType": "uint256",
          "name": "index",
          "type": "uint256"
        }
      ],
      "name": "tokenOfOwnerByIndex",
      "outputs": [
        {
          "internalType": "uint256",
          "name": "",
          "type": "uint256"
        }
      ],
      "stateMutability": "view",
      "type": "function"
    },
    {
      "inputs": [
        {
          "internalType": "uint256",
          "name": "tokenId",
          "type": "uint256"
        }
      ],
      "name": "tokenURI",
      "outputs": [
        {
          "internalType": "string",
          "name": "",
          "type": "string"
        }
      ],
      "stateMutability": "view",
      "type": "function"
    },
    {
      "inputs": [],
      "name": "totalSupply",
      "outputs": [
        {
          "internalType": "uint256",
          "name": "",
          "type": "uint256"
        }
      ],
      "stateMutability": "view",
      "type": "function"
    },
    {
      "inputs": [
        {
          "internalType": "address",
          "name": "from",
          "type": "address"
        },
        {
          "internalType": "address",
          "name": "to",
          "type": "address"
        },
        {
          "internalType": "uint256",
          "name": "tokenId",
          "type": "uint256"
        }
      ],
      "name": "transferFrom",
      "outputs": [],
      "stateMutability": "nonpayable",
      "type": "function"
    },
    {
      "inputs": [
        {
          "internalType": "uint256",
          "name": "tokenId",
          "type": "uint256"
        },
        {
          "internalType": "string",
          "name": "metadataURI",
          "type": "string"
        }
      ],
      "name": "updateTokenMetadataURI",
      "outputs": [],
      "stateMutability": "nonpayable",
      "type": "function"
    },
    {
      "inputs": [
        {
          "internalType": "uint256",
          "name": "tokenId",
          "type": "uint256"
        },
        {
          "internalType": "string",
          "name": "tokenURI",
          "type": "string"
        }
      ],
      "name": "updateTokenURI",
      "outputs": [],
      "stateMutability": "nonpayable",
      "type": "function"
    }
  ],
  "bytecode": "0x60806040523480156200001157600080fd5b506040516200693338038062006933833981810160405281019062000037919062000325565b6040518060400160405280600481526020017f5a6f7261000000000000000000000000000000000000000000000000000000008152506040518060400160405280600481526020017f5a4f524100000000000000000000000000000000000000000000000000000000815250620000bb6301ffc9a760e01b6200018760201b60201c565b8160069080519060200190620000d39291906200025f565b508060079080519060200190620000ec9291906200025f565b50620001056380ac58cd60e01b6200018760201b60201c565b6200011d63780e9d6360e01b6200018760201b60201c565b50506001600a8190555080600b60006101000a81548173ffffffffffffffffffffffffffffffffffffffff021916908373ffffffffffffffffffffffffffffffffffffffff16021790555062000180634e222e6660e01b6200018760201b60201c565b5062000414565b63ffffffff60e01b817bffffffffffffffffffffffffffffffffffffffffffffffffffffffff19161415620001f3576040517f08c379a0000000000000000000000000000000000000000000000000000000008152600401620001ea9062000393565b60405180910390fd5b6001600080837bffffffffffffffffffffffffffffffffffffffffffffffffffffffff19167bffffffffffffffffffffffffffffffffffffffffffffffffffffffff1916815260200190815260200160002060006101000a81548160ff02191690831515021790555050565b828054600181600116156101000203166002900490600052602060002090601f016020900481019282601f10620002a257805160ff1916838001178555620002d3565b82800160010185558215620002d3579182015b82811115620002d2578251825591602001919060010190620002b5565b5b509050620002e29190620002e6565b5090565b6200030b91905b8082111562000307576000816000905550600101620002ed565b5090565b90565b6000815190506200031f81620003fa565b92915050565b6000602082840312156200033857600080fd5b600062000348848285016200030e565b91505092915050565b600062000360601c83620003b5565b91507f4552433136353a20696e76616c696420696e74657266616365206964000000006000830152602082019050919050565b60006020820190508181036000830152620003ae8162000351565b9050919050565b600082825260208201905092915050565b6000620003d382620003da565b9050919050565b600073ffffffffffffffffffffffffffffffffffffffff82169050919050565b6200040581620003c6565b81146200041157600080fd5b50565b61650f80620004246000396000f3fe608060405234801561001057600080fd5b50600436106102485760003560e01c80636352211e1161013b578063b320f459116100b8578063e0fd045f1161007c578063e0fd045f1461070b578063e985e9c51461073b578063f6b630f01461076b578063f8ccd5de14610787578063fad32197146107b757610248565b8063b320f45914610669578063b88d4fde14610685578063ba339399146106a1578063c87b56dd146106bd578063de5236fb146106ed57610248565b806395d89b41116100ff57806395d89b41146105c55780639d8e7260146105e3578063a1794bcd14610613578063a22cb46514610631578063b1e130fc1461064d57610248565b80636352211e1461050f5780636c0360eb1461053f57806370a082311461055d57806375682e791461058d5780637a7a1202146105a957610248565b806323b872dd116101c957806342842e0e1161018d57806342842e0e1461046f57806342966c681461048b5780634f6ccce7146104a75780635bf62422146104d757806362f24b70146104f357610248565b806323b872dd146103cd57806328220f35146103e95780632cca3237146104055780632f745c591461042157806330adf81f1461045157610248565b80630bcd899b116102105780630bcd899b146103175780630e2a177814610347578063157c3df91461036357806318160ddd1461039357806318e97fd1146103b157610248565b806301ddc3b51461024d57806301ffc9a71461027d57806306fdde03146102ad578063081812fc146102cb578063095ea7b3146102fb575b600080fd5b6102676004803603810190610262919061496d565b6107e7565b6040516102749190615b12565b60405180910390f35b610297600480360381019061029291906148c7565b6107ff565b6040516102a49190615af7565b60405180910390f35b6102b5610866565b6040516102c29190615c79565b60405180910390f35b6102e560048036038101906102e0919061496d565b610908565b6040516102f29190615a5e565b60405180910390f35b6103156004803603810190610310919061483c565b61098d565b005b610331600480360381019061032c9190614655565b610aa5565b60405161033e91906160fb565b60405180910390f35b610361600480360381019061035c9190614878565b610abd565b005b61037d6004803603810190610378919061496d565b610e37565b60405161038a9190615c79565b60405180910390f35b61039b610f39565b6040516103a891906160fb565b60405180910390f35b6103cb60048036038101906103c691906149d2565b610f4a565b005b6103e760048036038101906103e291906146ba565b611162565b005b61040360048036038101906103fe919061496d565b6111c2565b005b61041f600480360381019061041a9190614919565b6112f5565b005b61043b6004803603810190610436919061483c565b61135a565b60405161044891906160fb565b60405180910390f35b6104596113b5565b6040516104669190615b12565b60405180910390f35b610489600480360381019061048491906146ba565b6113dc565b005b6104a560048036038101906104a0919061496d565b6113fc565b005b6104c160048036038101906104bc919061496d565b6115a4565b6040516104ce91906160fb565b60405180910390f35b6104f160048036038101906104ec9190614a66565b6115c7565b005b61050d60048036038101906105089190614a2a565b61176e565b005b6105296004803603810190610524919061496d565b6118a4565b6040516105369190615a5e565b60405180910390f35b6105476118db565b6040516105549190615c79565b60405180910390f35b61057760048036038101906105729190614655565b61197d565b60405161058491906160fb565b60405180910390f35b6105a760048036038101906105a291906149d2565b611a3c565b005b6105c360048036038101906105be91906147c0565b611c54565b005b6105cd611f07565b6040516105da9190615c79565b60405180910390f35b6105fd60048036038101906105f8919061496d565b611fa9565b60405161060a9190615a5e565b60405180910390f35b61061b611fdc565b6040516106289190615a5e565b60405180910390f35b61064b60048036038101906106469190614784565b612002565b005b6106676004803603810190610662919061496d565b612183565b005b610683600480360381019061067e919061496d565b61225d565b005b61069f600480360381019061069a9190614709565b612392565b005b6106bb60048036038101906106b69190614a66565b6123f4565b005b6106d760048036038101906106d2919061496d565b61252a565b6040516106e49190615c79565b60405180910390f35b6106f5612632565b6040516107029190615b12565b60405180910390f35b6107256004803603810190610720919061496d565b612659565b6040516107329190615a5e565b60405180910390f35b6107556004803603810190610750919061467e565b61268c565b6040516107629190615af7565b60405180910390f35b61078560048036038101906107809190614996565b612720565b005b6107a1600480360381019061079c919061483c565b612831565b6040516107ae91906160fb565b60405180910390f35b6107d160048036038101906107cc919061496d565b612856565b6040516107de9190615b12565b60405180910390f35b60106020528060005260406000206000915090505481565b6000806000837bffffffffffffffffffffffffffffffffffffffffffffffffffffffff19167bffffffffffffffffffffffffffffffffffffffffffffffffffffffff1916815260200190815260200160002060009054906101000a900460ff169050919050565b606060068054600181600116156101000203166002900480601f0160208091040260200160405190810160405280929190818152602001828054600181600116156101000203166002900480156108fe5780601f106108d3576101008083540402835291602001916108fe565b820191906000526020600020905b8154815290600101906020018083116108e157829003601f168201915b5050505050905090565b60006109138261286e565b610952576040517f08c379a000000000000000000000000000000000000000000000000000000000815260040161094990615f3b565b60405180910390fd5b6004600083815260200190815260200160002060009054906101000a900473ffffffffffffffffffffffffffffffffffffffff169050919050565b6000610998826118a4565b90508073ffffffffffffffffffffffffffffffffffffffff168373ffffffffffffffffffffffffffffffffffffffff161415610a09576040517f08c379a0000000000000000000000000000000000000000000000000000000008152600401610a0090615ffb565b60405180910390fd5b8073ffffffffffffffffffffffffffffffffffffffff16610a2861288b565b73ffffffffffffffffffffffffffffffffffffffff161480610a575750610a5681610a5161288b565b61268c565b5b610a96576040517f08c379a0000000000000000000000000000000000000000000000000000000008152600401610a8d90615e3b565b60405180910390fd5b610aa08383612893565b505050565b60146020528060005260406000206000915090505481565b6002600a541415610b03576040517f08c379a0000000000000000000000000000000000000000000000000000000008152600401610afa906160bb565b60405180910390fd5b6002600a8190555081610b158161286e565b610b54576040517f08c379a0000000000000000000000000000000000000000000000000000000008152600401610b4b9061609b565b60405180910390fd5b600082600001511480610b6b575042826000015110155b610baa576040517f08c379a0000000000000000000000000000000000000000000000000000000008152600401610ba190615e7b565b60405180910390fd5b600073ffffffffffffffffffffffffffffffffffffffff168473ffffffffffffffffffffffffffffffffffffffff161415610c1a576040517f08c379a0000000000000000000000000000000000000000000000000000000008152600401610c1190615cfb565b60405180910390fd5b6000610c2461294c565b90506000817f49ecf333e5b8c95c40fdafc95c1ad136e8914a8fb55e9dc8bb01eaa83a2df9ad60001b878760136000610c5c8b6118a4565b73ffffffffffffffffffffffffffffffffffffffff1673ffffffffffffffffffffffffffffffffffffffff16815260200190815260200160002060008a81526020019081526020016000206000815480929190600101919050558860000151604051602001610ccf959493929190615b2d565b60405160208183030381529060405280519060200120604051602001610cf6929190615a12565b604051602081830303815290604052805190602001209050600060018286602001518760400151886060015160405160008152602001604052604051610d3f9493929190615c34565b6020604051602081039080840390855afa158015610d61573d6000803e3d6000fd5b505050602060405103519050600073ffffffffffffffffffffffffffffffffffffffff168173ffffffffffffffffffffffffffffffffffffffff1614158015610ddd57508073ffffffffffffffffffffffffffffffffffffffff16610dc5876118a4565b73ffffffffffffffffffffffffffffffffffffffff16145b610e1c576040517f08c379a0000000000000000000000000000000000000000000000000000000008152600401610e139061607b565b60405180910390fd5b610e268787612893565b505050506001600a81905550505050565b60608180610e456015612a12565b11610e85576040517f08c379a0000000000000000000000000000000000000000000000000000000008152600401610e7c90615cbb565b60405180910390fd5b601160008481526020019081526020016000208054600181600116156101000203166002900480601f016020809104026020016040519081016040528092919081815260200182805460018160011615610100020316600290048015610f2c5780601f10610f0157610100808354040283529160200191610f2c565b820191906000526020600020905b815481529060010190602001808311610f0f57829003601f168201915b5050505050915050919050565b6000610f456002612a20565b905090565b6002600a541415610f90576040517f08c379a0000000000000000000000000000000000000000000000000000000008152600401610f87906160bb565b60405180910390fd5b6002600a819055503383610fa48282612a35565b610fe3576040517f08c379a0000000000000000000000000000000000000000000000000000000008152600401610fda90615f7b565b60405180910390fd5b846000801b600f600083815260200190815260200160002054141561103d576040517f08c379a000000000000000000000000000000000000000000000000000000000815260040161103490615fbb565b60405180910390fd5b84848080601f016020809104026020016040519081016040528093929190818152602001838380828437600081840152601f19601f820116905080830192505050505050506000815114156110c7576040517f08c379a00000000000000000000000000000000000000000000000000000000081526004016110be906160db565b60405180910390fd5b6111158787878080601f016020809104026020016040519081016040528093929190818152602001838380828437600081840152601f19601f82011690508083019250505050505050612b13565b867f702fe2dc2dc0f68023540aa4a1e11811c0f29112f6ebf01e61b90538e4f2981033888860405161114993929190615ac5565b60405180910390a2505050506001600a81905550505050565b61117361116d61288b565b82612a35565b6111b2576040517f08c379a00000000000000000000000000000000000000000000000000000000081526004016111a99061603b565b60405180910390fd5b6111bd838383612b87565b505050565b6002600a541415611208576040517f08c379a00000000000000000000000000000000000000000000000000000000081526004016111ff906160bb565b60405180910390fd5b6002600a81905550338161121c8282612a35565b61125b576040517f08c379a000000000000000000000000000000000000000000000000000000000815260040161125290615f7b565b60405180910390fd5b600b60009054906101000a900473ffffffffffffffffffffffffffffffffffffffff1673ffffffffffffffffffffffffffffffffffffffff166328220f35846040518263ffffffff1660e01b81526004016112b691906160fb565b600060405180830381600087803b1580156112d057600080fd5b505af11580156112e4573d6000803e3d6000fd5b5050505050506001600a8190555050565b6002600a54141561133b576040517f08c379a0000000000000000000000000000000000000000000000000000000008152600401611332906160bb565b60405180910390fd5b6002600a8190555061134e338383612c24565b6001600a819055505050565b60006113ad82600160008673ffffffffffffffffffffffffffffffffffffffff1673ffffffffffffffffffffffffffffffffffffffff168152602001908152602001600020612fce90919063ffffffff16565b905092915050565b7f49ecf333e5b8c95c40fdafc95c1ad136e8914a8fb55e9dc8bb01eaa83a2df9ad60001b81565b6113f783838360405180602001604052806000815250612392565b505050565b6002600a541415611442576040517f08c379a0000000000000000000000000000000000000000000000000000000008152600401611439906160bb565b60405180910390fd5b6002600a81905550806114548161286e565b611493576040517f08c379a000000000000000000000000000000000000000000000000000000000815260040161148a9061609b565b60405180910390fd5b338261149f8282612a35565b6114de576040517f08c379a00000000000000000000000000000000000000000000000000000000081526004016114d590615f7b565b60405180910390fd5b60006114e9856118a4565b90508073ffffffffffffffffffffffffffffffffffffffff16600d600087815260200190815260200160002060009054906101000a900473ffffffffffffffffffffffffffffffffffffffff1673ffffffffffffffffffffffffffffffffffffffff161461158c576040517f08c379a000000000000000000000000000000000000000000000000000000000815260040161158390615f1b565b60405180910390fd5b61159585612fe8565b505050506001600a8190555050565b6000806115bb83600261310d90919063ffffffff16565b50905080915050919050565b6002600a54141561160d576040517f08c379a0000000000000000000000000000000000000000000000000000000008152600401611604906160bb565b60405180910390fd5b6002600a819055508161161f8161286e565b61165e576040517f08c379a00000000000000000000000000000000000000000000000000000000081526004016116559061609b565b60405180910390fd5b816040015173ffffffffffffffffffffffffffffffffffffffff163373ffffffffffffffffffffffffffffffffffffffff16146116d0576040517f08c379a00000000000000000000000000000000000000000000000000000000081526004016116c790615d3b565b60405180910390fd5b600b60009054906101000a900473ffffffffffffffffffffffffffffffffffffffff1673ffffffffffffffffffffffffffffffffffffffff1663bdb586988484336040518463ffffffff1660e01b815260040161172f939291906161ba565b600060405180830381600087803b15801561174957600080fd5b505af115801561175d573d6000803e3d6000fd5b50505050506001600a819055505050565b6002600a5414156117b4576040517f08c379a00000000000000000000000000000000000000000000000000000000081526004016117ab906160bb565b60405180910390fd5b6002600a8190555033826117c88282612a35565b611807576040517f08c379a00000000000000000000000000000000000000000000000000000000081526004016117fe90615f7b565b60405180910390fd5b600b60009054906101000a900473ffffffffffffffffffffffffffffffffffffffff1673ffffffffffffffffffffffffffffffffffffffff166362f24b7085856040518363ffffffff1660e01b815260040161186492919061613f565b600060405180830381600087803b15801561187e57600080fd5b505af1158015611892573d6000803e3d6000fd5b5050505050506001600a819055505050565b60006118d4826040518060600160405280602981526020016164b160299139600261313c9092919063ffffffff16565b9050919050565b606060098054600181600116156101000203166002900480601f0160208091040260200160405190810160405280929190818152602001828054600181600116156101000203166002900480156119735780601f1061194857610100808354040283529160200191611973565b820191906000526020600020905b81548152906001019060200180831161195657829003601f168201915b5050505050905090565b60008073ffffffffffffffffffffffffffffffffffffffff168273ffffffffffffffffffffffffffffffffffffffff1614156119ee576040517f08c379a00000000000000000000000000000000000000000000000000000000081526004016119e590615e5b565b60405180910390fd5b611a35600160008473ffffffffffffffffffffffffffffffffffffffff1673ffffffffffffffffffffffffffffffffffffffff16815260200190815260200160002061315b565b9050919050565b6002600a541415611a82576040517f08c379a0000000000000000000000000000000000000000000000000000000008152600401611a79906160bb565b60405180910390fd5b6002600a819055503383611a968282612a35565b611ad5576040517f08c379a0000000000000000000000000000000000000000000000000000000008152600401611acc90615f7b565b60405180910390fd5b846000801b60106000838152602001908152602001600020541415611b2f576040517f08c379a0000000000000000000000000000000000000000000000000000000008152600401611b2690615dbb565b60405180910390fd5b84848080601f016020809104026020016040519081016040528093929190818152602001838380828437600081840152601f19601f82011690508083019250505050505050600081511415611bb9576040517f08c379a0000000000000000000000000000000000000000000000000000000008152600401611bb0906160db565b60405180910390fd5b611c078787878080601f016020809104026020016040519081016040528093929190818152602001838380828437600081840152601f19601f82011690508083019250505050505050613170565b867fe3df41127db820c79e5b8d541a63e40e3e97b9af96f7a50bded13091b70df9ae338888604051611c3b93929190615ac5565b60405180910390a2505050506001600a81905550505050565b6002600a541415611c9a576040517f08c379a0000000000000000000000000000000000000000000000000000000008152600401611c91906160bb565b60405180910390fd5b6002600a81905550600081600001511480611cb9575042816000015110155b611cf8576040517f08c379a0000000000000000000000000000000000000000000000000000000008152600401611cef9061601b565b60405180910390fd5b6000611d0261294c565b90506000817f2952e482b8e2b192305f87374d7af45dc2eafafe4f50d26a0c02e90f2fdbe14b60001b86604001518760600151876020015160000151601460008c73ffffffffffffffffffffffffffffffffffffffff1673ffffffffffffffffffffffffffffffffffffffff1681526020019081526020016000206000815480929190600101919050558860000151604051602001611da696959493929190615bd3565b60405160208183030381529060405280519060200120604051602001611dcd929190615a12565b604051602081830303815290604052805190602001209050600060018285602001518660400151876060015160405160008152602001604052604051611e169493929190615c34565b6020604051602081039080840390855afa158015611e38573d6000803e3d6000fd5b505050602060405103519050600073ffffffffffffffffffffffffffffffffffffffff168173ffffffffffffffffffffffffffffffffffffffff1614158015611eac57508073ffffffffffffffffffffffffffffffffffffffff168773ffffffffffffffffffffffffffffffffffffffff16145b611eeb576040517f08c379a0000000000000000000000000000000000000000000000000000000008152600401611ee29061607b565b60405180910390fd5b611ef6818787612c24565b5050506001600a8190555050505050565b606060078054600181600116156101000203166002900480601f016020809104026020016040519081016040528092919081815260200182805460018160011615610100020316600290048015611f9f5780601f10611f7457610100808354040283529160200191611f9f565b820191906000526020600020905b815481529060010190602001808311611f8257829003601f168201915b5050505050905090565b600c6020528060005260406000206000915054906101000a900473ffffffffffffffffffffffffffffffffffffffff1681565b600b60009054906101000a900473ffffffffffffffffffffffffffffffffffffffff1681565b61200a61288b565b73ffffffffffffffffffffffffffffffffffffffff168273ffffffffffffffffffffffffffffffffffffffff161415612078576040517f08c379a000000000000000000000000000000000000000000000000000000000815260040161206f90615d9b565b60405180910390fd5b806005600061208561288b565b73ffffffffffffffffffffffffffffffffffffffff1673ffffffffffffffffffffffffffffffffffffffff16815260200190815260200160002060008473ffffffffffffffffffffffffffffffffffffffff1673ffffffffffffffffffffffffffffffffffffffff16815260200190815260200160002060006101000a81548160ff0219169083151502179055508173ffffffffffffffffffffffffffffffffffffffff1661213261288b565b73ffffffffffffffffffffffffffffffffffffffff167f17307eab39ab6107e8899845ad3d59bd9653f200f220920489ca2b5937696c31836040516121779190615af7565b60405180910390a35050565b6002600a5414156121c9576040517f08c379a00000000000000000000000000000000000000000000000000000000081526004016121c0906160bb565b60405180910390fd5b6002600a819055506121da81610908565b73ffffffffffffffffffffffffffffffffffffffff163373ffffffffffffffffffffffffffffffffffffffff1614612247576040517f08c379a000000000000000000000000000000000000000000000000000000000815260040161223e90615d5b565b60405180910390fd5b612252600082612893565b6001600a8190555050565b6002600a5414156122a3576040517f08c379a000000000000000000000000000000000000000000000000000000000815260040161229a906160bb565b60405180910390fd5b6002600a8190555080806122b76015612a12565b116122f7576040517f08c379a00000000000000000000000000000000000000000000000000000000081526004016122ee90615cbb565b60405180910390fd5b600b60009054906101000a900473ffffffffffffffffffffffffffffffffffffffff1673ffffffffffffffffffffffffffffffffffffffff1663776a083583336040518363ffffffff1660e01b8152600401612354929190616116565b600060405180830381600087803b15801561236e57600080fd5b505af1158015612382573d6000803e3d6000fd5b50505050506001600a8190555050565b6123a361239d61288b565b83612a35565b6123e2576040517f08c379a00000000000000000000000000000000000000000000000000000000081526004016123d99061603b565b60405180910390fd5b6123ee848484846131e6565b50505050565b6002600a54141561243a576040517f08c379a0000000000000000000000000000000000000000000000000000000008152600401612431906160bb565b60405180910390fd5b6002600a81905550338261244e8282612a35565b61248d576040517f08c379a000000000000000000000000000000000000000000000000000000000815260040161248490615f7b565b60405180910390fd5b600b60009054906101000a900473ffffffffffffffffffffffffffffffffffffffff1673ffffffffffffffffffffffffffffffffffffffff1663ba33939985856040518363ffffffff1660e01b81526004016124ea929190616191565b600060405180830381600087803b15801561250457600080fd5b505af1158015612518573d6000803e3d6000fd5b5050505050506001600a819055505050565b606081806125386015612a12565b11612578576040517f08c379a000000000000000000000000000000000000000000000000000000000815260040161256f90615cbb565b60405180910390fd5b6060600860008581526020019081526020016000208054600181600116156101000203166002900480601f0160208091040260200160405190810160405280929190818152602001828054600181600116156101000203166002900480156126215780601f106125f657610100808354040283529160200191612621565b820191906000526020600020905b81548152906001019060200180831161260457829003601f168201915b505050505090508092505050919050565b7f2952e482b8e2b192305f87374d7af45dc2eafafe4f50d26a0c02e90f2fdbe14b60001b81565b600d6020528060005260406000206000915054906101000a900473ffffffffffffffffffffffffffffffffffffffff1681565b6000600560008473ffffffffffffffffffffffffffffffffffffffff1673ffffffffffffffffffffffffffffffffffffffff16815260200190815260200160002060008373ffffffffffffffffffffffffffffffffffffffff1673ffffffffffffffffffffffffffffffffffffffff16815260200190815260200160002060009054906101000a900460ff16905092915050565b600b60009054906101000a900473ffffffffffffffffffffffffffffffffffffffff1673ffffffffffffffffffffffffffffffffffffffff163373ffffffffffffffffffffffffffffffffffffffff16146127b0576040517f08c379a00000000000000000000000000000000000000000000000000000000081526004016127a790615edb565b60405180910390fd5b6127b9826118a4565b600c600084815260200190815260200160002060006101000a81548173ffffffffffffffffffffffffffffffffffffffff021916908373ffffffffffffffffffffffffffffffffffffffff16021790555061282d612816836118a4565b8284604051806020016040528060008152506131e6565b5050565b6013602052816000526040600020602052806000526040600020600091509150505481565b600f6020528060005260406000206000915090505481565b600061288482600261324290919063ffffffff16565b9050919050565b600033905090565b816004600083815260200190815260200160002060006101000a81548173ffffffffffffffffffffffffffffffffffffffff021916908373ffffffffffffffffffffffffffffffffffffffff160217905550808273ffffffffffffffffffffffffffffffffffffffff16612906836118a4565b73ffffffffffffffffffffffffffffffffffffffff167f8c5be1e5ebec7d5bd14f71427d1e84f3dd0314c0f7b2291e5b200ac8c7c3b92560405160405180910390a45050565b60008046905060405161295e90615a49565b60405180910390206040518060400160405280600481526020017f5a6f726100000000000000000000000000000000000000000000000000000000815250805190602001206040518060400160405280600181526020017f31000000000000000000000000000000000000000000000000000000000000008152508051906020012083306040516020016129f6959493929190615b80565b6040516020818303038152906040528051906020012091505090565b600081600001549050919050565b6000612a2e8260000161325c565b9050919050565b6000612a408261286e565b612a7f576040517f08c379a0000000000000000000000000000000000000000000000000000000008152600401612a7690615e1b565b60405180910390fd5b6000612a8a836118a4565b90508073ffffffffffffffffffffffffffffffffffffffff168473ffffffffffffffffffffffffffffffffffffffff161480612af957508373ffffffffffffffffffffffffffffffffffffffff16612ae184610908565b73ffffffffffffffffffffffffffffffffffffffff16145b80612b0a5750612b09818561268c565b5b91505092915050565b612b1c8261286e565b612b5b576040517f08c379a0000000000000000000000000000000000000000000000000000000008152600401612b5290615f5b565b60405180910390fd5b80600860008481526020019081526020016000209080519060200190612b8292919061415f565b505050565b600b60009054906101000a900473ffffffffffffffffffffffffffffffffffffffff1673ffffffffffffffffffffffffffffffffffffffff166328220f35826040518263ffffffff1660e01b8152600401612be291906160fb565b600060405180830381600087803b158015612bfc57600080fd5b505af1158015612c10573d6000803e3d6000fd5b50505050612c1f83838361326d565b505050565b8160000151600081511415612c6e576040517f08c379a0000000000000000000000000000000000000000000000000000000008152600401612c65906160db565b60405180910390fd5b8260200151600081511415612cb8576040517f08c379a0000000000000000000000000000000000000000000000000000000008152600401612caf906160db565b60405180910390fd5b6000801b84604001511415612d02576040517f08c379a0000000000000000000000000000000000000000000000000000000008152600401612cf990615ddb565b60405180910390fd5b60001515601260008660400151815260200190815260200160002060009054906101000a900460ff16151514612d6d576040517f08c379a0000000000000000000000000000000000000000000000000000000008152600401612d6490615e9b565b60405180910390fd5b6000801b84606001511415612db7576040517f08c379a0000000000000000000000000000000000000000000000000000000008152600401612dae90615fdb565b60405180910390fd5b6000612dc36015612a12565b9050612dcf8682613484565b612dd960156134a2565b612de78186604001516134b8565b612df581866060015161351e565b612e03818660200151613170565b612e11818660000151612b13565b612e6281600e60008973ffffffffffffffffffffffffffffffffffffffff1673ffffffffffffffffffffffffffffffffffffffff16815260200190815260200160002061358490919063ffffffff16565b506001601260008760400151815260200190815260200160002060006101000a81548160ff02191690831515021790555085600d600083815260200190815260200160002060006101000a81548173ffffffffffffffffffffffffffffffffffffffff021916908373ffffffffffffffffffffffffffffffffffffffff16021790555085600c600083815260200190815260200160002060006101000a81548173ffffffffffffffffffffffffffffffffffffffff021916908373ffffffffffffffffffffffffffffffffffffffff160217905550600b60009054906101000a900473ffffffffffffffffffffffffffffffffffffffff1673ffffffffffffffffffffffffffffffffffffffff1663eb55683a82866040518363ffffffff1660e01b8152600401612f94929190616168565b600060405180830381600087803b158015612fae57600080fd5b505af1158015612fc2573d6000803e3d6000fd5b50505050505050505050565b6000612fdd836000018361359e565b60001c905092915050565b6060600860008381526020019081526020016000208054600181600116156101000203166002900480601f0160208091040260200160405190810160405280929190818152602001828054600181600116156101000203166002900480156130915780601f1061306657610100808354040283529160200191613091565b820191906000526020600020905b81548152906001019060200180831161307457829003601f168201915b505050505090506130a18261360b565b60008151146130d357806008600084815260200190815260200160002090805190602001906130d192919061415f565b505b600c600083815260200190815260200160002060006101000a81549073ffffffffffffffffffffffffffffffffffffffff02191690555050565b6000806000806131208660000186613745565b915091508160001c8160001c8090509350935050509250929050565b600061314f846000018460001b846137c8565b60001c90509392505050565b600061316982600001613859565b9050919050565b8161317a8161286e565b6131b9576040517f08c379a00000000000000000000000000000000000000000000000000000000081526004016131b09061609b565b60405180910390fd5b816011600085815260200190815260200160002090805190602001906131e092919061415f565b50505050565b6131f1848484612b87565b6131fd8484848461386a565b61323c576040517f08c379a000000000000000000000000000000000000000000000000000000000815260040161323390615cdb565b60405180910390fd5b50505050565b6000613254836000018360001b6139ce565b905092915050565b600081600001805490509050919050565b8273ffffffffffffffffffffffffffffffffffffffff1661328d826118a4565b73ffffffffffffffffffffffffffffffffffffffff16146132e3576040517f08c379a00000000000000000000000000000000000000000000000000000000081526004016132da90615f9b565b60405180910390fd5b600073ffffffffffffffffffffffffffffffffffffffff168273ffffffffffffffffffffffffffffffffffffffff161415613353576040517f08c379a000000000000000000000000000000000000000000000000000000000815260040161334a90615d7b565b60405180910390fd5b61335e8383836139f1565b613369600082612893565b6133ba81600160008673ffffffffffffffffffffffffffffffffffffffff1673ffffffffffffffffffffffffffffffffffffffff1681526020019081526020016000206139f690919063ffffffff16565b5061340c81600160008573ffffffffffffffffffffffffffffffffffffffff1673ffffffffffffffffffffffffffffffffffffffff16815260200190815260200160002061358490919063ffffffff16565b5061342381836002613a109092919063ffffffff16565b50808273ffffffffffffffffffffffffffffffffffffffff168473ffffffffffffffffffffffffffffffffffffffff167fddf252ad1be2c89b69c2b068fc378daa952ba7f163c4a11628f55a4df523b3ef60405160405180910390a4505050565b61349e828260405180602001604052806000815250613a45565b5050565b6001816000016000828254019250508190555050565b816134c28161286e565b613501576040517f08c379a00000000000000000000000000000000000000000000000000000000081526004016134f89061609b565b60405180910390fd5b81600f600085815260200190815260200160002081905550505050565b816135288161286e565b613567576040517f08c379a000000000000000000000000000000000000000000000000000000000815260040161355e9061609b565b60405180910390fd5b816010600085815260200190815260200160002081905550505050565b6000613596836000018360001b613aa0565b905092915050565b6000818360000180549050116135e9576040517f08c379a00000000000000000000000000000000000000000000000000000000081526004016135e090615c9b565b60405180910390fd5b8260000182815481106135f857fe5b9060005260206000200154905092915050565b6000613616826118a4565b9050613624816000846139f1565b61362f600083612893565b6000600860008481526020019081526020016000208054600181600116156101000203166002900490501461367e5760086000838152602001908152602001600020600061367d91906141df565b5b6136cf82600160008473ffffffffffffffffffffffffffffffffffffffff1673ffffffffffffffffffffffffffffffffffffffff1681526020019081526020016000206139f690919063ffffffff16565b506136e4826002613b1090919063ffffffff16565b5081600073ffffffffffffffffffffffffffffffffffffffff168273ffffffffffffffffffffffffffffffffffffffff167fddf252ad1be2c89b69c2b068fc378daa952ba7f163c4a11628f55a4df523b3ef60405160405180910390a45050565b60008082846000018054905011613791576040517f08c379a000000000000000000000000000000000000000000000000000000000815260040161378890615ebb565b60405180910390fd5b60008460000184815481106137a257fe5b906000526020600020906002020190508060000154816001015492509250509250929050565b6000808460010160008581526020019081526020016000205490506000811415839061382a576040517f08c379a00000000000000000000000000000000000000000000000000000000081526004016138219190615c79565b60405180910390fd5b5084600001600182038154811061383d57fe5b9060005260206000209060020201600101549150509392505050565b600081600001805490509050919050565b600061388b8473ffffffffffffffffffffffffffffffffffffffff16613b2a565b61389857600190506139c6565b606061395f63150b7a0260e01b6138ad61288b565b8887876040516024016138c39493929190615a79565b604051602081830303815290604052907bffffffffffffffffffffffffffffffffffffffffffffffffffffffff19166020820180517bffffffffffffffffffffffffffffffffffffffffffffffffffffffff838183161783525050505060405180606001604052806032815260200161647f603291398773ffffffffffffffffffffffffffffffffffffffff16613b3d9092919063ffffffff16565b905060008180602001905181019061397791906148f0565b905063150b7a0260e01b7bffffffffffffffffffffffffffffffffffffffffffffffffffffffff1916817bffffffffffffffffffffffffffffffffffffffffffffffffffffffff191614925050505b949350505050565b600080836001016000848152602001908152602001600020541415905092915050565b505050565b6000613a08836000018360001b613b55565b905092915050565b6000613a3c846000018460001b8473ffffffffffffffffffffffffffffffffffffffff1660001b613c3d565b90509392505050565b613a4f8383613d19565b613a5c600084848461386a565b613a9b576040517f08c379a0000000000000000000000000000000000000000000000000000000008152600401613a9290615cdb565b60405180910390fd5b505050565b6000613aac8383613ea7565b613b05578260000182908060018154018082558091505060019003906000526020600020016000909190919091505582600001805490508360010160008481526020019081526020016000208190555060019050613b0a565b600090505b92915050565b6000613b22836000018360001b613eca565b905092915050565b600080823b905060008111915050919050565b6060613b4c8484600085613fe3565b90509392505050565b60008083600101600084815260200190815260200160002054905060008114613c315760006001820390506000600186600001805490500390506000866000018281548110613ba057fe5b9060005260206000200154905080876000018481548110613bbd57fe5b9060005260206000200181905550600183018760010160008381526020019081526020016000208190555086600001805480613bf557fe5b60019003818190600052602060002001600090559055866001016000878152602001908152602001600020600090556001945050505050613c37565b60009150505b92915050565b6000808460010160008581526020019081526020016000205490506000811415613ce457846000016040518060400160405280868152602001858152509080600181540180825580915050600190039060005260206000209060020201600090919091909150600082015181600001556020820151816001015550508460000180549050856001016000868152602001908152602001600020819055506001915050613d12565b82856000016001830381548110613cf757fe5b90600052602060002090600202016001018190555060009150505b9392505050565b600073ffffffffffffffffffffffffffffffffffffffff168273ffffffffffffffffffffffffffffffffffffffff161415613d89576040517f08c379a0000000000000000000000000000000000000000000000000000000008152600401613d8090615efb565b60405180910390fd5b613d928161286e565b15613dd2576040517f08c379a0000000000000000000000000000000000000000000000000000000008152600401613dc990615d1b565b60405180910390fd5b613dde600083836139f1565b613e2f81600160008573ffffffffffffffffffffffffffffffffffffffff1673ffffffffffffffffffffffffffffffffffffffff16815260200190815260200160002061358490919063ffffffff16565b50613e4681836002613a109092919063ffffffff16565b50808273ffffffffffffffffffffffffffffffffffffffff16600073ffffffffffffffffffffffffffffffffffffffff167fddf252ad1be2c89b69c2b068fc378daa952ba7f163c4a11628f55a4df523b3ef60405160405180910390a45050565b600080836001016000848152602001908152602001600020541415905092915050565b60008083600101600084815260200190815260200160002054905060008114613fd75760006001820390506000600186600001805490500390506000866000018281548110613f1557fe5b9060005260206000209060020201905080876000018481548110613f3557fe5b9060005260206000209060020201600082015481600001556001820154816001015590505060018301876001016000836000015481526020019081526020016000208190555086600001805480613f8857fe5b6001900381819060005260206000209060020201600080820160009055600182016000905550509055866001016000878152602001908152602001600020600090556001945050505050613fdd565b60009150505b92915050565b606082471015614028576040517f08c379a000000000000000000000000000000000000000000000000000000000815260040161401f90615dfb565b60405180910390fd5b61403185613b2a565b614070576040517f08c379a00000000000000000000000000000000000000000000000000000000081526004016140679061605b565b60405180910390fd5b600060608673ffffffffffffffffffffffffffffffffffffffff16858760405161409a91906159fb565b60006040518083038185875af1925050503d80600081146140d7576040519150601f19603f3d011682016040523d82523d6000602084013e6140dc565b606091505b50915091506140ec8282866140f8565b92505050949350505050565b6060831561410857829050614158565b60008351111561411b5782518084602001fd5b816040517f08c379a000000000000000000000000000000000000000000000000000000000815260040161414f9190615c79565b60405180910390fd5b9392505050565b828054600181600116156101000203166002900490600052602060002090601f016020900481019282601f106141a057805160ff19168380011785556141ce565b828001600101855582156141ce579182015b828111156141cd5782518255916020019190600101906141b2565b5b5090506141db9190614227565b5090565b50805460018160011615610100020316600290046000825580601f106142055750614224565b601f0160209004906000526020600020908101906142239190614227565b5b50565b61424991905b8082111561424557600081600090555060010161422d565b5090565b90565b60008135905061425b816163f4565b92915050565b6000813590506142708161640b565b92915050565b60008135905061428581616422565b92915050565b60008135905061429a81616439565b92915050565b6000815190506142af81616439565b92915050565b600082601f8301126142c657600080fd5b81356142d96142d48261621e565b6161f1565b915080825260208301602083018583830111156142f557600080fd5b614300838284616397565b50505092915050565b60008083601f84011261431b57600080fd5b8235905067ffffffffffffffff81111561433457600080fd5b60208301915083600182028301111561434c57600080fd5b9250929050565b600082601f83011261436457600080fd5b81356143776143728261624a565b6161f1565b9150808252602083016020830185838301111561439357600080fd5b61439e838284616397565b50505092915050565b6000604082840312156143b957600080fd5b6143c360406161f1565b905060006143d38482850161462b565b60008301525060206143e78482850161424c565b60208301525092915050565b60006060828403121561440557600080fd5b61440f60606161f1565b9050600061441f848285016144db565b6000830152506020614433848285016144db565b6020830152506040614447848285016144db565b60408301525092915050565b600060a0828403121561446557600080fd5b61446f60a06161f1565b9050600061447f8482850161462b565b60008301525060206144938482850161424c565b60208301525060406144a78482850161424c565b60408301525060606144bb8482850161424c565b60608301525060806144cf848285016144db565b60808301525092915050565b6000602082840312156144ed57600080fd5b6144f760206161f1565b905060006145078482850161462b565b60008301525092915050565b60006080828403121561452557600080fd5b61452f60806161f1565b9050600061453f8482850161462b565b600083015250602061455384828501614640565b602083015250604061456784828501614276565b604083015250606061457b84828501614276565b60608301525092915050565b60006080828403121561459957600080fd5b6145a360806161f1565b9050600082013567ffffffffffffffff8111156145bf57600080fd5b6145cb84828501614353565b600083015250602082013567ffffffffffffffff8111156145eb57600080fd5b6145f784828501614353565b602083015250604061460b84828501614276565b604083015250606061461f84828501614276565b60608301525092915050565b60008135905061463a81616450565b92915050565b60008135905061464f81616467565b92915050565b60006020828403121561466757600080fd5b60006146758482850161424c565b91505092915050565b6000806040838503121561469157600080fd5b600061469f8582860161424c565b92505060206146b08582860161424c565b9150509250929050565b6000806000606084860312156146cf57600080fd5b60006146dd8682870161424c565b93505060206146ee8682870161424c565b92505060406146ff8682870161462b565b9150509250925092565b6000806000806080858703121561471f57600080fd5b600061472d8782880161424c565b945050602061473e8782880161424c565b935050604061474f8782880161462b565b925050606085013567ffffffffffffffff81111561476c57600080fd5b614778878288016142b5565b91505092959194509250565b6000806040838503121561479757600080fd5b60006147a58582860161424c565b92505060206147b685828601614261565b9150509250929050565b60008060008061012085870312156147d757600080fd5b60006147e58782880161424c565b945050602085013567ffffffffffffffff81111561480257600080fd5b61480e87828801614587565b935050604061481f878288016143f3565b92505060a061483087828801614513565b91505092959194509250565b6000806040838503121561484f57600080fd5b600061485d8582860161424c565b925050602061486e8582860161462b565b9150509250929050565b600080600060c0848603121561488d57600080fd5b600061489b8682870161424c565b93505060206148ac8682870161462b565b92505060406148bd86828701614513565b9150509250925092565b6000602082840312156148d957600080fd5b60006148e78482850161428b565b91505092915050565b60006020828403121561490257600080fd5b6000614910848285016142a0565b91505092915050565b6000806080838503121561492c57600080fd5b600083013567ffffffffffffffff81111561494657600080fd5b61495285828601614587565b9250506020614963858286016143f3565b9150509250929050565b60006020828403121561497f57600080fd5b600061498d8482850161462b565b91505092915050565b600080604083850312156149a957600080fd5b60006149b78582860161462b565b92505060206149c88582860161424c565b9150509250929050565b6000806000604084860312156149e757600080fd5b60006149f58682870161462b565b935050602084013567ffffffffffffffff811115614a1257600080fd5b614a1e86828701614309565b92509250509250925092565b60008060608385031215614a3d57600080fd5b6000614a4b8582860161462b565b9250506020614a5c858286016143a7565b9150509250929050565b60008060c08385031215614a7957600080fd5b6000614a878582860161462b565b9250506020614a9885828601614453565b9150509250929050565b614aab81616361565b82525050565b614aba816162d6565b82525050565b614ac9816162c4565b82525050565b614ad8816162c4565b82525050565b614ae7816162e8565b82525050565b614af6816162f4565b82525050565b614b0d614b08826162f4565b6163d9565b82525050565b6000614b1e82616276565b614b28818561628c565b9350614b388185602086016163a6565b614b41816163e3565b840191505092915050565b6000614b5782616276565b614b61818561629d565b9350614b718185602086016163a6565b80840191505092915050565b6000614b8983856162a8565b9350614b96838584616397565b614b9f836163e3565b840190509392505050565b6000614bb582616281565b614bbf81856162a8565b9350614bcf8185602086016163a6565b614bd8816163e3565b840191505092915050565b6000614bf06022836162a8565b91507f456e756d657261626c655365743a20696e646578206f7574206f6620626f756e60008301527f64730000000000000000000000000000000000000000000000000000000000006020830152604082019050919050565b6000614c566028836162a8565b91507f4d656469613a20746f6b656e2077697468207468617420696420646f6573206e60008301527f6f742065786973740000000000000000000000000000000000000000000000006020830152604082019050919050565b6000614cbc6032836162a8565b91507f4552433732313a207472616e7366657220746f206e6f6e20455243373231526560008301527f63656976657220696d706c656d656e74657200000000000000000000000000006020830152604082019050919050565b6000614d22601c836162a8565b91507f4d656469613a207370656e6465722063616e6e6f7420626520307830000000006000830152602082019050919050565b6000614d62601c836162a8565b91507f4552433732313a20746f6b656e20616c7265616479206d696e746564000000006000830152602082019050919050565b6000614da26021836162a8565b91507f4d61726b65743a20426964646572206d757374206265206d73672073656e646560008301527f72000000000000000000000000000000000000000000000000000000000000006020830152604082019050919050565b6000614e086002836162b9565b91507f19010000000000000000000000000000000000000000000000000000000000006000830152600282019050919050565b6000614e486022836162a8565b91507f4d656469613a2063616c6c6572206e6f7420617070726f76656420616464726560008301527f73730000000000000000000000000000000000000000000000000000000000006020830152604082019050919050565b6000614eae6024836162a8565b91507f4552433732313a207472616e7366657220746f20746865207a65726f2061646460008301527f72657373000000000000000000000000000000000000000000000000000000006020830152604082019050919050565b6000614f146019836162a8565b91507f4552433732313a20617070726f766520746f2063616c6c6572000000000000006000830152602082019050919050565b6000614f54602f836162a8565b91507f4d656469613a20746f6b656e20646f6573206e6f74206861766520686173682060008301527f6f6620697473206d6574616461746100000000000000000000000000000000006020830152604082019050919050565b6000614fba6024836162a8565b91507f4d656469613a20636f6e74656e742068617368206d757374206265206e6f6e2d60008301527f7a65726f000000000000000000000000000000000000000000000000000000006020830152604082019050919050565b60006150206026836162a8565b91507f416464726573733a20696e73756666696369656e742062616c616e636520666f60008301527f722063616c6c00000000000000000000000000000000000000000000000000006020830152604082019050919050565b6000615086602c836162a8565b91507f4552433732313a206f70657261746f7220717565727920666f72206e6f6e657860008301527f697374656e7420746f6b656e00000000000000000000000000000000000000006020830152604082019050919050565b60006150ec6038836162a8565b91507f4552433732313a20617070726f76652063616c6c6572206973206e6f74206f7760008301527f6e6572206e6f7220617070726f76656420666f7220616c6c00000000000000006020830152604082019050919050565b6000615152602a836162a8565b91507f4552433732313a2062616c616e636520717565727920666f7220746865207a6560008301527f726f2061646472657373000000000000000000000000000000000000000000006020830152604082019050919050565b60006151b86015836162a8565b91507f4d656469613a205065726d6974206578706972656400000000000000000000006000830152602082019050919050565b60006151f8603e836162a8565b91507f4d656469613a206120746f6b656e2068617320616c7265616479206265656e2060008301527f637265617465642077697468207468697320636f6e74656e74206861736800006020830152604082019050919050565b600061525e6022836162a8565b91507f456e756d657261626c654d61703a20696e646578206f7574206f6620626f756e60008301527f64730000000000000000000000000000000000000000000000000000000000006020830152604082019050919050565b60006152c4601b836162a8565b91507f4d656469613a206f6e6c79206d61726b657420636f6e747261637400000000006000830152602082019050919050565b60006153046020836162a8565b91507f4552433732313a206d696e7420746f20746865207a65726f20616464726573736000830152602082019050919050565b60006153446052836162b9565b91507f454950373132446f6d61696e28737472696e67206e616d652c737472696e672060008301527f76657273696f6e2c75696e7432353620636861696e49642c616464726573732060208301527f766572696679696e67436f6e74726163742900000000000000000000000000006040830152605282019050919050565b60006153d06024836162a8565b91507f4d656469613a206f776e6572206973206e6f742063726561746f72206f66206d60008301527f65646961000000000000000000000000000000000000000000000000000000006020830152604082019050919050565b6000615436602c836162a8565b91507f4552433732313a20617070726f76656420717565727920666f72206e6f6e657860008301527f697374656e7420746f6b656e00000000000000000000000000000000000000006020830152604082019050919050565b600061549c602c836162a8565b91507f4552433732314d657461646174613a2055524920736574206f66206e6f6e657860008301527f697374656e7420746f6b656e00000000000000000000000000000000000000006020830152604082019050919050565b6000615502601d836162a8565b91507f4d656469613a204f6e6c7920617070726f766564206f72206f776e65720000006000830152602082019050919050565b60006155426029836162a8565b91507f4552433732313a207472616e73666572206f6620746f6b656e2074686174206960008301527f73206e6f74206f776e00000000000000000000000000000000000000000000006020830152604082019050919050565b60006155a86032836162a8565b91507f4d656469613a20746f6b656e20646f6573206e6f74206861766520686173682060008301527f6f66206372656174656420636f6e74656e7400000000000000000000000000006020830152604082019050919050565b600061560e6025836162a8565b91507f4d656469613a206d657461646174612068617368206d757374206265206e6f6e60008301527f2d7a65726f0000000000000000000000000000000000000000000000000000006020830152604082019050919050565b60006156746021836162a8565b91507f4552433732313a20617070726f76616c20746f2063757272656e74206f776e6560008301527f72000000000000000000000000000000000000000000000000000000000000006020830152604082019050919050565b60006156da601a836162a8565b91507f4d656469613a206d696e745769746853696720657870697265640000000000006000830152602082019050919050565b600061571a6031836162a8565b91507f4552433732313a207472616e736665722063616c6c6572206973206e6f74206f60008301527f776e6572206e6f7220617070726f7665640000000000000000000000000000006020830152604082019050919050565b6000615780601d836162a8565b91507f416464726573733a2063616c6c20746f206e6f6e2d636f6e74726163740000006000830152602082019050919050565b60006157c06018836162a8565b91507f4d656469613a205369676e617475726520696e76616c696400000000000000006000830152602082019050919050565b60006158006018836162a8565b91507f4d656469613a206e6f6e6578697374656e7420746f6b656e00000000000000006000830152602082019050919050565b6000615840601f836162a8565b91507f5265656e7472616e637947756172643a207265656e7472616e742063616c6c006000830152602082019050919050565b60006158806026836162a8565b91507f4d656469613a2073706563696669656420757269206d757374206265206e6f6e60008301527f2d656d70747900000000000000000000000000000000000000000000000000006020830152604082019050919050565b6040820160008201516158ef60008501826159ce565b5060208201516159026020850182614ac0565b50505050565b60608201600082015161591e60008501826159b2565b50602082015161593160208501826159b2565b50604082015161594460408501826159b2565b50505050565b60a08201600082015161596060008501826159ce565b5060208201516159736020850182614ac0565b5060408201516159866040850182614ac0565b5060608201516159996060850182614ac0565b5060808201516159ac60808501826159b2565b50505050565b6020820160008201516159c860008501826159ce565b50505050565b6159d78161634a565b82525050565b6159e68161634a565b82525050565b6159f581616354565b82525050565b6000615a078284614b4c565b915081905092915050565b6000615a1d82614dfb565b9150615a298285614afc565b602082019150615a398284614afc565b6020820191508190509392505050565b6000615a5482615337565b9150819050919050565b6000602082019050615a736000830184614acf565b92915050565b6000608082019050615a8e6000830187614ab1565b615a9b6020830186614acf565b615aa860408301856159dd565b8181036060830152615aba8184614b13565b905095945050505050565b6000604082019050615ada6000830186614aa2565b8181036020830152615aed818486614b7d565b9050949350505050565b6000602082019050615b0c6000830184614ade565b92915050565b6000602082019050615b276000830184614aed565b92915050565b600060a082019050615b426000830188614aed565b615b4f6020830187614acf565b615b5c60408301866159dd565b615b6960608301856159dd565b615b7660808301846159dd565b9695505050505050565b600060a082019050615b956000830188614aed565b615ba26020830187614aed565b615baf6040830186614aed565b615bbc60608301856159dd565b615bc96080830184614acf565b9695505050505050565b600060c082019050615be86000830189614aed565b615bf56020830188614aed565b615c026040830187614aed565b615c0f60608301866159dd565b615c1c60808301856159dd565b615c2960a08301846159dd565b979650505050505050565b6000608082019050615c496000830187614aed565b615c5660208301866159ec565b615c636040830185614aed565b615c706060830184614aed565b95945050505050565b60006020820190508181036000830152615c938184614baa565b905092915050565b60006020820190508181036000830152615cb481614be3565b9050919050565b60006020820190508181036000830152615cd481614c49565b9050919050565b60006020820190508181036000830152615cf481614caf565b9050919050565b60006020820190508181036000830152615d1481614d15565b9050919050565b60006020820190508181036000830152615d3481614d55565b9050919050565b60006020820190508181036000830152615d5481614d95565b9050919050565b60006020820190508181036000830152615d7481614e3b565b9050919050565b60006020820190508181036000830152615d9481614ea1565b9050919050565b60006020820190508181036000830152615db481614f07565b9050919050565b60006020820190508181036000830152615dd481614f47565b9050919050565b60006020820190508181036000830152615df481614fad565b9050919050565b60006020820190508181036000830152615e1481615013565b9050919050565b60006020820190508181036000830152615e3481615079565b9050919050565b60006020820190508181036000830152615e54816150df565b9050919050565b60006020820190508181036000830152615e7481615145565b9050919050565b60006020820190508181036000830152615e94816151ab565b9050919050565b60006020820190508181036000830152615eb4816151eb565b9050919050565b60006020820190508181036000830152615ed481615251565b9050919050565b60006020820190508181036000830152615ef4816152b7565b9050919050565b60006020820190508181036000830152615f14816152f7565b9050919050565b60006020820190508181036000830152615f34816153c3565b9050919050565b60006020820190508181036000830152615f5481615429565b9050919050565b60006020820190508181036000830152615f748161548f565b9050919050565b60006020820190508181036000830152615f94816154f5565b9050919050565b60006020820190508181036000830152615fb481615535565b9050919050565b60006020820190508181036000830152615fd48161559b565b9050919050565b60006020820190508181036000830152615ff481615601565b9050919050565b6000602082019050818103600083015261601481615667565b9050919050565b60006020820190508181036000830152616034816156cd565b9050919050565b600060208201905081810360008301526160548161570d565b9050919050565b6000602082019050818103600083015261607481615773565b9050919050565b60006020820190508181036000830152616094816157b3565b9050919050565b600060208201905081810360008301526160b4816157f3565b9050919050565b600060208201905081810360008301526160d481615833565b9050919050565b600060208201905081810360008301526160f481615873565b9050919050565b600060208201905061611060008301846159dd565b92915050565b600060408201905061612b60008301856159dd565b6161386020830184614aa2565b9392505050565b600060608201905061615460008301856159dd565b61616160208301846158d9565b9392505050565b600060808201905061617d60008301856159dd565b61618a6020830184615908565b9392505050565b600060c0820190506161a660008301856159dd565b6161b3602083018461594a565b9392505050565b600060e0820190506161cf60008301866159dd565b6161dc602083018561594a565b6161e960c0830184614aa2565b949350505050565b6000604051905081810181811067ffffffffffffffff8211171561621457600080fd5b8060405250919050565b600067ffffffffffffffff82111561623557600080fd5b601f19601f8301169050602081019050919050565b600067ffffffffffffffff82111561626157600080fd5b601f19601f8301169050602081019050919050565b600081519050919050565b600081519050919050565b600082825260208201905092915050565b600081905092915050565b600082825260208201905092915050565b600081905092915050565b60006162cf8261632a565b9050919050565b60006162e18261632a565b9050919050565b60008115159050919050565b6000819050919050565b60007fffffffff0000000000000000000000000000000000000000000000000000000082169050919050565b600073ffffffffffffffffffffffffffffffffffffffff82169050919050565b6000819050919050565b600060ff82169050919050565b600061636c82616373565b9050919050565b600061637e82616385565b9050919050565b60006163908261632a565b9050919050565b82818337600083830152505050565b60005b838110156163c45780820151818401526020810190506163a9565b838111156163d3576000848401525b50505050565b6000819050919050565b6000601f19601f8301169050919050565b6163fd816162c4565b811461640857600080fd5b50565b616414816162e8565b811461641f57600080fd5b50565b61642b816162f4565b811461643657600080fd5b50565b616442816162fe565b811461644d57600080fd5b50565b6164598161634a565b811461646457600080fd5b50565b61647081616354565b811461647b57600080fd5b5056fe4552433732313a207472616e7366657220746f206e6f6e20455243373231526563656976657220696d706c656d656e7465724552433732313a206f776e657220717565727920666f72206e6f6e6578697374656e7420746f6b656ea2646970667358221220e9c2d7c9fd323d239eb1f47d43f36be51d9dedb1232946c2fc708467c7f196f164736f6c63430006080033",
  "linkReferences": {},
  "deployedLinkReferences": {}
}