{
  "_format": "hh-sol-artifact-1",
  "contractName": "AutographContract",
  "sourceName": "contracts/AutographContract.sol",
  "abi": [
    {
      "inputs": [],
      "stateMutability": "nonpayable",
      "type": "constructor"
    },
    {
      "anonymous": false,
      "inputs": [
        {
          "indexed": true,
          "internalType": "address",
          "name": "owner",
          "type": "address"
        },
        {
          "indexed": true,
          "internalType": "address",
          "name": "approved",
          "type": "address"
        },
        {
          "indexed": true,
          "internalType": "uint256",
          "name": "tokenId",
          "type": "uint256"
        }
      ],
      "name": "Approval",
      "type": "event"
    },
    {
      "anonymous": false,
      "inputs": [
        {
          "indexed": true,
          "internalType": "address",
          "name": "owner",
          "type": "address"
        },
        {
          "indexed": true,
          "internalType": "address",
          "name": "operator",
          "type": "address"
        },
        {
          "indexed": false,
          "internalType": "bool",
          "name": "approved",
          "type": "bool"
        }
      ],
      "name": "ApprovalForAll",
      "type": "event"
    },
    {
      "anonymous": false,
      "inputs": [
        {
          "indexed": false,
          "internalType": "uint256",
          "name": "id",
          "type": "uint256"
        },
        {
          "indexed": false,
          "internalType": "address",
          "name": "owner",
          "type": "address"
        }
      ],
      "name": "Minted",
      "type": "event"
    },
    {
      "anonymous": false,
      "inputs": [
        {
          "indexed": true,
          "internalType": "address",
          "name": "from",
          "type": "address"
        },
        {
          "indexed": true,
          "internalType": "address",
          "name": "to",
          "type": "address"
        },
        {
          "indexed": true,
          "internalType": "uint256",
          "name": "tokenId",
          "type": "uint256"
        }
      ],
      "name": "Transfer",
      "type": "event"
    },
    {
      "inputs": [
        {
          "internalType": "address",
          "name": "to",
          "type": "address"
        },
        {
          "internalType": "uint256",
          "name": "tokenId",
          "type": "uint256"
        }
      ],
      "name": "approve",
      "outputs": [],
      "stateMutability": "nonpayable",
      "type": "function"
    },
    {
      "inputs": [
        {
          "internalType": "address",
          "name": "owner",
          "type": "address"
        }
      ],
      "name": "balanceOf",
      "outputs": [
        {
          "internalType": "uint256",
          "name": "",
          "type": "uint256"
        }
      ],
      "stateMutability": "view",
      "type": "function"
    },
    {
      "inputs": [],
      "name": "baseURI",
      "outputs": [
        {
          "internalType": "string",
          "name": "",
          "type": "string"
        }
      ],
      "stateMutability": "view",
      "type": "function"
    },
    {
      "inputs": [
        {
          "internalType": "uint256",
          "name": "tokenId",
          "type": "uint256"
        }
      ],
      "name": "getApproved",
      "outputs": [
        {
          "internalType": "address",
          "name": "",
          "type": "address"
        }
      ],
      "stateMutability": "view",
      "type": "function"
    },
    {
      "inputs": [
        {
          "internalType": "address",
          "name": "owner",
          "type": "address"
        },
        {
          "internalType": "address",
          "name": "operator",
          "type": "address"
        }
      ],
      "name": "isApprovedForAll",
      "outputs": [
        {
          "internalType": "bool",
          "name": "",
          "type": "bool"
        }
      ],
      "stateMutability": "view",
      "type": "function"
    },
    {
      "inputs": [
        {
          "internalType": "address",
          "name": "to",
          "type": "address"
        },
        {
          "internalType": "string",
          "name": "hash",
          "type": "string"
        },
        {
          "internalType": "string",
          "name": "metadata",
          "type": "string"
        }
      ],
      "name": "mint",
      "outputs": [
        {
          "internalType": "uint256",
          "name": "",
          "type": "uint256"
        }
      ],
      "stateMutability": "nonpayable",
      "type": "function"
    },
    {
      "inputs": [],
      "name": "name",
      "outputs": [
        {
          "internalType": "string",
          "name": "",
          "type": "string"
        }
      ],
      "stateMutability": "view",
      "type": "function"
    },
    {
      "inputs": [
        {
          "internalType": "uint256",
          "name": "tokenId",
          "type": "uint256"
        }
      ],
      "name": "ownerOf",
      "outputs": [
        {
          "internalType": "address",
          "name": "",
          "type": "address"
        }
      ],
      "stateMutability": "view",
      "type": "function"
    },
    {
      "inputs": [
        {
          "internalType": "address",
          "name": "from",
          "type": "address"
        },
        {
          "internalType": "address",
          "name": "to",
          "type": "address"
        },
        {
          "internalType": "uint256",
          "name": "tokenId",
          "type": "uint256"
        }
      ],
      "name": "safeTransferFrom",
      "outputs": [],
      "stateMutability": "nonpayable",
      "type": "function"
    },
    {
      "inputs": [
        {
          "internalType": "address",
          "name": "from",
          "type": "address"
        },
        {
          "internalType": "address",
          "name": "to",
          "type": "address"
        },
        {
          "internalType": "uint256",
          "name": "tokenId",
          "type": "uint256"
        },
        {
          "internalType": "bytes",
          "name": "_data",
          "type": "bytes"
        }
      ],
      "name": "safeTransferFrom",
      "outputs": [],
      "stateMutability": "nonpayable",
      "type": "function"
    },
    {
      "inputs": [
        {
          "internalType": "address",
          "name": "operator",
          "type": "address"
        },
        {
          "internalType": "bool",
          "name": "approved",
          "type": "bool"
        }
      ],
      "name": "setApprovalForAll",
      "outputs": [],
      "stateMutability": "nonpayable",
      "type": "function"
    },
    {
      "inputs": [
        {
          "internalType": "bytes4",
          "name": "interfaceId",
          "type": "bytes4"
        }
      ],
      "name": "supportsInterface",
      "outputs": [
        {
          "internalType": "bool",
          "name": "",
          "type": "bool"
        }
      ],
      "stateMutability": "view",
      "type": "function"
    },
    {
      "inputs": [],
      "name": "symbol",
      "outputs": [
        {
          "internalType": "string",
          "name": "",
          "type": "string"
        }
      ],
      "stateMutability": "view",
      "type": "function"
    },
    {
      "inputs": [
        {
          "internalType": "uint256",
          "name": "index",
          "type": "uint256"
        }
      ],
      "name": "tokenByIndex",
      "outputs": [
        {
          "internalType": "uint256",
          "name": "",
          "type": "uint256"
        }
      ],
      "stateMutability": "view",
      "type": "function"
    },
    {
      "inputs": [
        {
          "internalType": "address",
          "name": "owner",
          "type": "address"
        },
        {
          "internalType": "uint256",
          "name": "index",
          "type": "uint256"
        }
      ],
      "name": "tokenOfOwnerByIndex",
      "outputs": [
        {
          "internalType": "uint256",
          "name": "",
          "type": "uint256"
        }
      ],
      "stateMutability": "view",
      "type": "function"
    },
    {
      "inputs": [
        {
          "internalType": "uint256",
          "name": "tokenId",
          "type": "uint256"
        }
      ],
      "name": "tokenURI",
      "outputs": [
        {
          "internalType": "string",
          "name": "",
          "type": "string"
        }
      ],
      "stateMutability": "view",
      "type": "function"
    },
    {
      "inputs": [],
      "name": "totalSupply",
      "outputs": [
        {
          "internalType": "uint256",
          "name": "",
          "type": "uint256"
        }
      ],
      "stateMutability": "view",
      "type": "function"
    },
    {
      "inputs": [
        {
          "internalType": "address",
          "name": "from",
          "type": "address"
        },
        {
          "internalType": "address",
          "name": "to",
          "type": "address"
        },
        {
          "internalType": "uint256",
          "name": "tokenId",
          "type": "uint256"
        }
      ],
      "name": "transferFrom",
      "outputs": [],
      "stateMutability": "nonpayable",
      "type": "function"
    }
  ],
  "bytecode": "0x60806040523480156200001157600080fd5b506040518060400160405280600d81526020017f48617368496e6b20546f6b656e000000000000000000000000000000000000008152506040518060400160405280600481526020017f48494e4b00000000000000000000000000000000000000000000000000000000815250620000966301ffc9a760e01b6200015e60201b60201c565b8160069080519060200190620000ae92919062000283565b508060079080519060200190620000c792919062000283565b50620000e06380ac58cd60e01b6200015e60201b60201c565b620000f8635b5e139f60e01b6200015e60201b60201c565b6200011063780e9d6360e01b6200015e60201b60201c565b5050620001586040518060400160405280601581526020017f68747470733a2f2f697066732e696f2f697066732f00000000000000000000008152506200026760201b60201c565b62000329565b63ffffffff60e01b817bffffffffffffffffffffffffffffffffffffffffffffffffffffffff19161415620001fb576040517f08c379a000000000000000000000000000000000000000000000000000000000815260040180806020018281038252601c8152602001807f4552433136353a20696e76616c696420696e746572666163652069640000000081525060200191505060405180910390fd5b6001600080837bffffffffffffffffffffffffffffffffffffffffffffffffffffffff19167bffffffffffffffffffffffffffffffffffffffffffffffffffffffff1916815260200190815260200160002060006101000a81548160ff02191690831515021790555050565b80600990805190602001906200027f92919062000283565b5050565b828054600181600116156101000203166002900490600052602060002090601f016020900481019282601f10620002c657805160ff1916838001178555620002f7565b82800160010185558215620002f7579182015b82811115620002f6578251825591602001919060010190620002d9565b5b5090506200030691906200030a565b5090565b5b80821115620003255760008160009055506001016200030b565b5090565b612e4880620003396000396000f3fe608060405234801561001057600080fd5b50600436106101165760003560e01c80636352211e116100a2578063990711901161007157806399071190146105fb578063a22cb46514610781578063b88d4fde146107d1578063c87b56dd146108d6578063e985e9c51461097d57610116565b80636352211e146104455780636c0360eb1461049d57806370a082311461052057806395d89b411461057857610116565b806318160ddd116100e957806318160ddd146102a757806323b872dd146102c55780632f745c591461033357806342842e0e146103955780634f6ccce71461040357610116565b806301ffc9a71461011b57806306fdde031461017e578063081812fc14610201578063095ea7b314610259575b600080fd5b6101666004803603602081101561013157600080fd5b8101908080357bffffffffffffffffffffffffffffffffffffffffffffffffffffffff191690602001909291905050506109f7565b60405180821515815260200191505060405180910390f35b610186610a5e565b6040518080602001828103825283818151815260200191508051906020019080838360005b838110156101c65780820151818401526020810190506101ab565b50505050905090810190601f1680156101f35780820380516001836020036101000a031916815260200191505b509250505060405180910390f35b61022d6004803603602081101561021757600080fd5b8101908080359060200190929190505050610b00565b604051808273ffffffffffffffffffffffffffffffffffffffff16815260200191505060405180910390f35b6102a56004803603604081101561026f57600080fd5b81019080803573ffffffffffffffffffffffffffffffffffffffff16906020019092919080359060200190929190505050610b9b565b005b6102af610cdf565b6040518082815260200191505060405180910390f35b610331600480360360608110156102db57600080fd5b81019080803573ffffffffffffffffffffffffffffffffffffffff169060200190929190803573ffffffffffffffffffffffffffffffffffffffff16906020019092919080359060200190929190505050610cf0565b005b61037f6004803603604081101561034957600080fd5b81019080803573ffffffffffffffffffffffffffffffffffffffff16906020019092919080359060200190929190505050610d66565b6040518082815260200191505060405180910390f35b610401600480360360608110156103ab57600080fd5b81019080803573ffffffffffffffffffffffffffffffffffffffff169060200190929190803573ffffffffffffffffffffffffffffffffffffffff16906020019092919080359060200190929190505050610dc1565b005b61042f6004803603602081101561041957600080fd5b8101908080359060200190929190505050610de1565b6040518082815260200191505060405180910390f35b6104716004803603602081101561045b57600080fd5b8101908080359060200190929190505050610e04565b604051808273ffffffffffffffffffffffffffffffffffffffff16815260200191505060405180910390f35b6104a5610e3b565b6040518080602001828103825283818151815260200191508051906020019080838360005b838110156104e55780820151818401526020810190506104ca565b50505050905090810190601f1680156105125780820380516001836020036101000a031916815260200191505b509250505060405180910390f35b6105626004803603602081101561053657600080fd5b81019080803573ffffffffffffffffffffffffffffffffffffffff169060200190929190505050610edd565b6040518082815260200191505060405180910390f35b610580610fb2565b6040518080602001828103825283818151815260200191508051906020019080838360005b838110156105c05780820151818401526020810190506105a5565b50505050905090810190601f1680156105ed5780820380516001836020036101000a031916815260200191505b509250505060405180910390f35b61076b6004803603606081101561061157600080fd5b81019080803573ffffffffffffffffffffffffffffffffffffffff1690602001909291908035906020019064010000000081111561064e57600080fd5b82018360208201111561066057600080fd5b8035906020019184600183028401116401000000008311171561068257600080fd5b91908080601f016020809104026020016040519081016040528093929190818152602001838380828437600081840152601f19601f820116905080830192505050505050509192919290803590602001906401000000008111156106e557600080fd5b8201836020820111156106f757600080fd5b8035906020019184600183028401116401000000008311171561071957600080fd5b91908080601f016020809104026020016040519081016040528093929190818152602001838380828437600081840152601f19601f820116905080830192505050505050509192919290505050611054565b6040518082815260200191505060405180910390f35b6107cf6004803603604081101561079757600080fd5b81019080803573ffffffffffffffffffffffffffffffffffffffff1690602001909291908035151590602001909291905050506111ec565b005b6108d4600480360360808110156107e757600080fd5b81019080803573ffffffffffffffffffffffffffffffffffffffff169060200190929190803573ffffffffffffffffffffffffffffffffffffffff169060200190929190803590602001909291908035906020019064010000000081111561084e57600080fd5b82018360208201111561086057600080fd5b8035906020019184600183028401116401000000008311171561088257600080fd5b91908080601f016020809104026020016040519081016040528093929190818152602001838380828437600081840152601f19601f8201169050808301925050505050505091929192905050506113a2565b005b610902600480360360208110156108ec57600080fd5b810190808035906020019092919050505061141a565b6040518080602001828103825283818151815260200191508051906020019080838360005b83811015610942578082015181840152602081019050610927565b50505050905090810190601f16801561096f5780820380516001836020036101000a031916815260200191505b509250505060405180910390f35b6109df6004803603604081101561099357600080fd5b81019080803573ffffffffffffffffffffffffffffffffffffffff169060200190929190803573ffffffffffffffffffffffffffffffffffffffff1690602001909291905050506116eb565b60405180821515815260200191505060405180910390f35b6000806000837bffffffffffffffffffffffffffffffffffffffffffffffffffffffff19167bffffffffffffffffffffffffffffffffffffffffffffffffffffffff1916815260200190815260200160002060009054906101000a900460ff169050919050565b606060068054600181600116156101000203166002900480601f016020809104026020016040519081016040528092919081815260200182805460018160011615610100020316600290048015610af65780601f10610acb57610100808354040283529160200191610af6565b820191906000526020600020905b815481529060010190602001808311610ad957829003601f168201915b5050505050905090565b6000610b0b8261177f565b610b60576040517f08c379a000000000000000000000000000000000000000000000000000000000815260040180806020018281038252602c815260200180612d11602c913960400191505060405180910390fd5b6004600083815260200190815260200160002060009054906101000a900473ffffffffffffffffffffffffffffffffffffffff169050919050565b6000610ba682610e04565b90508073ffffffffffffffffffffffffffffffffffffffff168373ffffffffffffffffffffffffffffffffffffffff161415610c2d576040517f08c379a0000000000000000000000000000000000000000000000000000000008152600401808060200182810382526021815260200180612dc16021913960400191505060405180910390fd5b8073ffffffffffffffffffffffffffffffffffffffff16610c4c61179c565b73ffffffffffffffffffffffffffffffffffffffff161480610c7b5750610c7a81610c7561179c565b6116eb565b5b610cd0576040517f08c379a0000000000000000000000000000000000000000000000000000000008152600401808060200182810382526038815260200180612c646038913960400191505060405180910390fd5b610cda83836117a4565b505050565b6000610ceb600261185d565b905090565b610d01610cfb61179c565b82611872565b610d56576040517f08c379a0000000000000000000000000000000000000000000000000000000008152600401808060200182810382526031815260200180612de26031913960400191505060405180910390fd5b610d61838383611966565b505050565b6000610db982600160008673ffffffffffffffffffffffffffffffffffffffff1673ffffffffffffffffffffffffffffffffffffffff168152602001908152602001600020611ba990919063ffffffff16565b905092915050565b610ddc838383604051806020016040528060008152506113a2565b505050565b600080610df8836002611bc390919063ffffffff16565b50905080915050919050565b6000610e3482604051806060016040528060298152602001612cc6602991396002611bef9092919063ffffffff16565b9050919050565b606060098054600181600116156101000203166002900480601f016020809104026020016040519081016040528092919081815260200182805460018160011615610100020316600290048015610ed35780601f10610ea857610100808354040283529160200191610ed3565b820191906000526020600020905b815481529060010190602001808311610eb657829003601f168201915b5050505050905090565b60008073ffffffffffffffffffffffffffffffffffffffff168273ffffffffffffffffffffffffffffffffffffffff161415610f64576040517f08c379a000000000000000000000000000000000000000000000000000000000815260040180806020018281038252602a815260200180612c9c602a913960400191505060405180910390fd5b610fab600160008473ffffffffffffffffffffffffffffffffffffffff1673ffffffffffffffffffffffffffffffffffffffff168152602001908152602001600020611c0e565b9050919050565b606060078054600181600116156101000203166002900480601f01602080910402602001604051908101604052809291908181526020018280546001816001161561010002031660029004801561104a5780601f1061101f5761010080835404028352916020019161104a565b820191906000526020600020905b81548152906001019060200180831161102d57829003601f168201915b5050505050905090565b60006001600b846040518082805190602001908083835b6020831061108e578051825260208201915060208101905060208303925061106b565b6001836020036101000a038019825116818451168082178552505050505050905001915050908152602001604051809103902060009054906101000a900460ff1660ff1614156110dd57600080fd5b6001600b846040518082805190602001908083835b6020831061111557805182526020820191506020810190506020830392506110f2565b6001836020036101000a038019825116818451168082178552505050505050905001915050908152602001604051809103902060006101000a81548160ff021916908360ff16021790555061116a600a611c23565b6000611176600a611c39565b90506111828582611c47565b61118c8184611c65565b7fb9203d657e9c0ec8274c818292ab0f58b04e1970050716891770eb1bab5d655e8186604051808381526020018273ffffffffffffffffffffffffffffffffffffffff1681526020019250505060405180910390a1809150509392505050565b6111f461179c565b73ffffffffffffffffffffffffffffffffffffffff168273ffffffffffffffffffffffffffffffffffffffff161415611295576040517f08c379a00000000000000000000000000000000000000000000000000000000081526004018080602001828103825260198152602001807f4552433732313a20617070726f766520746f2063616c6c65720000000000000081525060200191505060405180910390fd5b80600560006112a261179c565b73ffffffffffffffffffffffffffffffffffffffff1673ffffffffffffffffffffffffffffffffffffffff16815260200190815260200160002060008473ffffffffffffffffffffffffffffffffffffffff1673ffffffffffffffffffffffffffffffffffffffff16815260200190815260200160002060006101000a81548160ff0219169083151502179055508173ffffffffffffffffffffffffffffffffffffffff1661134f61179c565b73ffffffffffffffffffffffffffffffffffffffff167f17307eab39ab6107e8899845ad3d59bd9653f200f220920489ca2b5937696c318360405180821515815260200191505060405180910390a35050565b6113b36113ad61179c565b83611872565b611408576040517f08c379a0000000000000000000000000000000000000000000000000000000008152600401808060200182810382526031815260200180612de26031913960400191505060405180910390fd5b61141484848484611cef565b50505050565b60606114258261177f565b61147a576040517f08c379a000000000000000000000000000000000000000000000000000000000815260040180806020018281038252602f815260200180612d92602f913960400191505060405180910390fd5b6060600860008481526020019081526020016000208054600181600116156101000203166002900480601f0160208091040260200160405190810160405280929190818152602001828054600181600116156101000203166002900480156115235780601f106114f857610100808354040283529160200191611523565b820191906000526020600020905b81548152906001019060200180831161150657829003601f168201915b505050505090506060611534610e3b565b905060008151141561154a5781925050506116e6565b60008251111561161b5780826040516020018083805190602001908083835b6020831061158c5780518252602082019150602081019050602083039250611569565b6001836020036101000a03801982511681845116808217855250505050505090500182805190602001908083835b602083106115dd57805182526020820191506020810190506020830392506115ba565b6001836020036101000a03801982511681845116808217855250505050505090500192505050604051602081830303815290604052925050506116e6565b8061162585611d61565b6040516020018083805190602001908083835b6020831061165b5780518252602082019150602081019050602083039250611638565b6001836020036101000a03801982511681845116808217855250505050505090500182805190602001908083835b602083106116ac5780518252602082019150602081019050602083039250611689565b6001836020036101000a03801982511681845116808217855250505050505090500192505050604051602081830303815290604052925050505b919050565b6000600560008473ffffffffffffffffffffffffffffffffffffffff1673ffffffffffffffffffffffffffffffffffffffff16815260200190815260200160002060008373ffffffffffffffffffffffffffffffffffffffff1673ffffffffffffffffffffffffffffffffffffffff16815260200190815260200160002060009054906101000a900460ff16905092915050565b6000611795826002611ea890919063ffffffff16565b9050919050565b600033905090565b816004600083815260200190815260200160002060006101000a81548173ffffffffffffffffffffffffffffffffffffffff021916908373ffffffffffffffffffffffffffffffffffffffff160217905550808273ffffffffffffffffffffffffffffffffffffffff1661181783610e04565b73ffffffffffffffffffffffffffffffffffffffff167f8c5be1e5ebec7d5bd14f71427d1e84f3dd0314c0f7b2291e5b200ac8c7c3b92560405160405180910390a45050565b600061186b82600001611ec2565b9050919050565b600061187d8261177f565b6118d2576040517f08c379a000000000000000000000000000000000000000000000000000000000815260040180806020018281038252602c815260200180612c38602c913960400191505060405180910390fd5b60006118dd83610e04565b90508073ffffffffffffffffffffffffffffffffffffffff168473ffffffffffffffffffffffffffffffffffffffff16148061194c57508373ffffffffffffffffffffffffffffffffffffffff1661193484610b00565b73ffffffffffffffffffffffffffffffffffffffff16145b8061195d575061195c81856116eb565b5b91505092915050565b8273ffffffffffffffffffffffffffffffffffffffff1661198682610e04565b73ffffffffffffffffffffffffffffffffffffffff16146119f2576040517f08c379a0000000000000000000000000000000000000000000000000000000008152600401808060200182810382526029815260200180612d696029913960400191505060405180910390fd5b600073ffffffffffffffffffffffffffffffffffffffff168273ffffffffffffffffffffffffffffffffffffffff161415611a78576040517f08c379a0000000000000000000000000000000000000000000000000000000008152600401808060200182810382526024815260200180612bee6024913960400191505060405180910390fd5b611a83838383611ed3565b611a8e6000826117a4565b611adf81600160008673ffffffffffffffffffffffffffffffffffffffff1673ffffffffffffffffffffffffffffffffffffffff168152602001908152602001600020611ed890919063ffffffff16565b50611b3181600160008573ffffffffffffffffffffffffffffffffffffffff1673ffffffffffffffffffffffffffffffffffffffff168152602001908152602001600020611ef290919063ffffffff16565b50611b4881836002611f0c9092919063ffffffff16565b50808273ffffffffffffffffffffffffffffffffffffffff168473ffffffffffffffffffffffffffffffffffffffff167fddf252ad1be2c89b69c2b068fc378daa952ba7f163c4a11628f55a4df523b3ef60405160405180910390a4505050565b6000611bb88360000183611f41565b60001c905092915050565b600080600080611bd68660000186611fc4565b915091508160001c8160001c9350935050509250929050565b6000611c02846000018460001b8461205d565b60001c90509392505050565b6000611c1c82600001612153565b9050919050565b6001816000016000828254019250508190555050565b600081600001549050919050565b611c61828260405180602001604052806000815250612164565b5050565b611c6e8261177f565b611cc3576040517f08c379a000000000000000000000000000000000000000000000000000000000815260040180806020018281038252602c815260200180612d3d602c913960400191505060405180910390fd5b80600860008481526020019081526020016000209080519060200190611cea929190612afc565b505050565b611cfa848484611966565b611d06848484846121d5565b611d5b576040517f08c379a0000000000000000000000000000000000000000000000000000000008152600401808060200182810382526032815260200180612bbc6032913960400191505060405180910390fd5b50505050565b60606000821415611da9576040518060400160405280600181526020017f30000000000000000000000000000000000000000000000000000000000000008152509050611ea3565b600082905060005b60008214611dd3578080600101915050600a8281611dcb57fe5b049150611db1565b60608167ffffffffffffffff81118015611dec57600080fd5b506040519080825280601f01601f191660200182016040528015611e1f5781602001600182028036833780820191505090505b50905060006001830390508593505b60008414611e9b57600a8481611e4057fe5b0660300160f81b82828060019003935081518110611e5a57fe5b60200101907effffffffffffffffffffffffffffffffffffffffffffffffffffffffffffff1916908160001a905350600a8481611e9357fe5b049350611e2e565b819450505050505b919050565b6000611eba836000018360001b6123ee565b905092915050565b600081600001805490509050919050565b505050565b6000611eea836000018360001b612411565b905092915050565b6000611f04836000018360001b6124f9565b905092915050565b6000611f38846000018460001b8473ffffffffffffffffffffffffffffffffffffffff1660001b612569565b90509392505050565b600081836000018054905011611fa2576040517f08c379a0000000000000000000000000000000000000000000000000000000008152600401808060200182810382526022815260200180612b9a6022913960400191505060405180910390fd5b826000018281548110611fb157fe5b9060005260206000200154905092915050565b60008082846000018054905011612026576040517f08c379a0000000000000000000000000000000000000000000000000000000008152600401808060200182810382526022815260200180612cef6022913960400191505060405180910390fd5b600084600001848154811061203757fe5b906000526020600020906002020190508060000154816001015492509250509250929050565b60008084600101600085815260200190815260200160002054905060008114158390612124576040517f08c379a00000000000000000000000000000000000000000000000000000000081526004018080602001828103825283818151815260200191508051906020019080838360005b838110156120e95780820151818401526020810190506120ce565b50505050905090810190601f1680156121165780820380516001836020036101000a031916815260200191505b509250505060405180910390fd5b5084600001600182038154811061213757fe5b9060005260206000209060020201600101549150509392505050565b600081600001805490509050919050565b61216e8383612645565b61217b60008484846121d5565b6121d0576040517f08c379a0000000000000000000000000000000000000000000000000000000008152600401808060200182810382526032815260200180612bbc6032913960400191505060405180910390fd5b505050565b60006121f68473ffffffffffffffffffffffffffffffffffffffff16612839565b61220357600190506123e6565b606061236d63150b7a0260e01b61221861179c565b888787604051602401808573ffffffffffffffffffffffffffffffffffffffff1681526020018473ffffffffffffffffffffffffffffffffffffffff16815260200183815260200180602001828103825283818151815260200191508051906020019080838360005b8381101561229c578082015181840152602081019050612281565b50505050905090810190601f1680156122c95780820380516001836020036101000a031916815260200191505b5095505050505050604051602081830303815290604052907bffffffffffffffffffffffffffffffffffffffffffffffffffffffff19166020820180517bffffffffffffffffffffffffffffffffffffffffffffffffffffffff8381831617835250505050604051806060016040528060328152602001612bbc603291398773ffffffffffffffffffffffffffffffffffffffff1661284c9092919063ffffffff16565b9050600081806020019051602081101561238657600080fd5b8101908080519060200190929190505050905063150b7a0260e01b7bffffffffffffffffffffffffffffffffffffffffffffffffffffffff1916817bffffffffffffffffffffffffffffffffffffffffffffffffffffffff191614925050505b949350505050565b600080836001016000848152602001908152602001600020541415905092915050565b600080836001016000848152602001908152602001600020549050600081146124ed576000600182039050600060018660000180549050039050600086600001828154811061245c57fe5b906000526020600020015490508087600001848154811061247957fe5b90600052602060002001819055506001830187600101600083815260200190815260200160002081905550866000018054806124b157fe5b600190038181906000526020600020016000905590558660010160008781526020019081526020016000206000905560019450505050506124f3565b60009150505b92915050565b60006125058383612864565b61255e578260000182908060018154018082558091505060019003906000526020600020016000909190919091505582600001805490508360010160008481526020019081526020016000208190555060019050612563565b600090505b92915050565b60008084600101600085815260200190815260200160002054905060008114156126105784600001604051806040016040528086815260200185815250908060018154018082558091505060019003906000526020600020906002020160009091909190915060008201518160000155602082015181600101555050846000018054905085600101600086815260200190815260200160002081905550600191505061263e565b8285600001600183038154811061262357fe5b90600052602060002090600202016001018190555060009150505b9392505050565b600073ffffffffffffffffffffffffffffffffffffffff168273ffffffffffffffffffffffffffffffffffffffff1614156126e8576040517f08c379a00000000000000000000000000000000000000000000000000000000081526004018080602001828103825260208152602001807f4552433732313a206d696e7420746f20746865207a65726f206164647265737381525060200191505060405180910390fd5b6126f18161177f565b15612764576040517f08c379a000000000000000000000000000000000000000000000000000000000815260040180806020018281038252601c8152602001807f4552433732313a20746f6b656e20616c7265616479206d696e7465640000000081525060200191505060405180910390fd5b61277060008383611ed3565b6127c181600160008573ffffffffffffffffffffffffffffffffffffffff1673ffffffffffffffffffffffffffffffffffffffff168152602001908152602001600020611ef290919063ffffffff16565b506127d881836002611f0c9092919063ffffffff16565b50808273ffffffffffffffffffffffffffffffffffffffff16600073ffffffffffffffffffffffffffffffffffffffff167fddf252ad1be2c89b69c2b068fc378daa952ba7f163c4a11628f55a4df523b3ef60405160405180910390a45050565b600080823b905060008111915050919050565b606061285b8484600085612887565b90509392505050565b600080836001016000848152602001908152602001600020541415905092915050565b6060824710156128e2576040517f08c379a0000000000000000000000000000000000000000000000000000000008152600401808060200182810382526026815260200180612c126026913960400191505060405180910390fd5b6128eb85612839565b61295d576040517f08c379a000000000000000000000000000000000000000000000000000000000815260040180806020018281038252601d8152602001807f416464726573733a2063616c6c20746f206e6f6e2d636f6e747261637400000081525060200191505060405180910390fd5b600060608673ffffffffffffffffffffffffffffffffffffffff1685876040518082805190602001908083835b602083106129ad578051825260208201915060208101905060208303925061298a565b6001836020036101000a03801982511681845116808217855250505050505090500191505060006040518083038185875af1925050503d8060008114612a0f576040519150601f19603f3d011682016040523d82523d6000602084013e612a14565b606091505b5091509150612a24828286612a30565b92505050949350505050565b60608315612a4057829050612af5565b600083511115612a535782518084602001fd5b816040517f08c379a00000000000000000000000000000000000000000000000000000000081526004018080602001828103825283818151815260200191508051906020019080838360005b83811015612aba578082015181840152602081019050612a9f565b50505050905090810190601f168015612ae75780820380516001836020036101000a031916815260200191505b509250505060405180910390fd5b9392505050565b828054600181600116156101000203166002900490600052602060002090601f016020900481019282601f10612b3d57805160ff1916838001178555612b6b565b82800160010185558215612b6b579182015b82811115612b6a578251825591602001919060010190612b4f565b5b509050612b789190612b7c565b5090565b5b80821115612b95576000816000905550600101612b7d565b509056fe456e756d657261626c655365743a20696e646578206f7574206f6620626f756e64734552433732313a207472616e7366657220746f206e6f6e20455243373231526563656976657220696d706c656d656e7465724552433732313a207472616e7366657220746f20746865207a65726f2061646472657373416464726573733a20696e73756666696369656e742062616c616e636520666f722063616c6c4552433732313a206f70657261746f7220717565727920666f72206e6f6e6578697374656e7420746f6b656e4552433732313a20617070726f76652063616c6c6572206973206e6f74206f776e6572206e6f7220617070726f76656420666f7220616c6c4552433732313a2062616c616e636520717565727920666f7220746865207a65726f20616464726573734552433732313a206f776e657220717565727920666f72206e6f6e6578697374656e7420746f6b656e456e756d657261626c654d61703a20696e646578206f7574206f6620626f756e64734552433732313a20617070726f76656420717565727920666f72206e6f6e6578697374656e7420746f6b656e4552433732314d657461646174613a2055524920736574206f66206e6f6e6578697374656e7420746f6b656e4552433732313a207472616e73666572206f6620746f6b656e2074686174206973206e6f74206f776e4552433732314d657461646174613a2055524920717565727920666f72206e6f6e6578697374656e7420746f6b656e4552433732313a20617070726f76616c20746f2063757272656e74206f776e65724552433732313a207472616e736665722063616c6c6572206973206e6f74206f776e6572206e6f7220617070726f766564a2646970667358221220d6bc29461c481be21ed17050b94282c82aa128f0ba762247beff89282eb3695a64736f6c63430007030033",
  "linkReferences": {},
  "deployedLinkReferences": {}
}