{
  "_format": "hh-sol-artifact-1",
  "contractName": "AutographRequestContract",
  "sourceName": "contracts/AutographRequestContract.sol",
  "abi": [
    {
      "inputs": [
        {
          "internalType": "address",
          "name": "_celebrityContract",
          "type": "address"
        },
        {
          "internalType": "address",
          "name": "_autographContract",
          "type": "address"
        }
      ],
      "stateMutability": "nonpayable",
      "type": "constructor"
    },
    {
      "anonymous": false,
      "inputs": [
        {
          "indexed": true,
          "internalType": "address",
          "name": "previousOwner",
          "type": "address"
        },
        {
          "indexed": true,
          "internalType": "address",
          "name": "newOwner",
          "type": "address"
        }
      ],
      "name": "OwnershipTransferred",
      "type": "event"
    },
    {
      "anonymous": false,
      "inputs": [
        {
          "indexed": false,
          "internalType": "uint256",
          "name": "id",
          "type": "uint256"
        },
        {
          "indexed": true,
          "internalType": "address",
          "name": "from",
          "type": "address"
        },
        {
          "indexed": true,
          "internalType": "address",
          "name": "to",
          "type": "address"
        },
        {
          "indexed": false,
          "internalType": "uint256",
          "name": "price",
          "type": "uint256"
        },
        {
          "indexed": false,
          "internalType": "uint256",
          "name": "responseTime",
          "type": "uint256"
        },
        {
          "indexed": false,
          "internalType": "uint256",
          "name": "created",
          "type": "uint256"
        }
      ],
      "name": "RequestCreated",
      "type": "event"
    },
    {
      "anonymous": false,
      "inputs": [
        {
          "indexed": false,
          "internalType": "uint256",
          "name": "id",
          "type": "uint256"
        },
        {
          "indexed": true,
          "internalType": "address",
          "name": "from",
          "type": "address"
        },
        {
          "indexed": true,
          "internalType": "address",
          "name": "to",
          "type": "address"
        },
        {
          "indexed": false,
          "internalType": "uint256",
          "name": "price",
          "type": "uint256"
        },
        {
          "indexed": false,
          "internalType": "uint256",
          "name": "responseTime",
          "type": "uint256"
        },
        {
          "indexed": false,
          "internalType": "uint256",
          "name": "created",
          "type": "uint256"
        }
      ],
      "name": "RequestDeleted",
      "type": "event"
    },
    {
      "inputs": [
        {
          "internalType": "address",
          "name": "to",
          "type": "address"
        }
      ],
      "name": "createRequest",
      "outputs": [],
      "stateMutability": "payable",
      "type": "function"
    },
    {
      "inputs": [
        {
          "internalType": "uint256",
          "name": "id",
          "type": "uint256"
        }
      ],
      "name": "deleteRequest",
      "outputs": [],
      "stateMutability": "nonpayable",
      "type": "function"
    },
    {
      "inputs": [],
      "name": "getBalance",
      "outputs": [
        {
          "internalType": "uint256",
          "name": "",
          "type": "uint256"
        }
      ],
      "stateMutability": "view",
      "type": "function"
    },
    {
      "inputs": [],
      "name": "owner",
      "outputs": [
        {
          "internalType": "address",
          "name": "",
          "type": "address"
        }
      ],
      "stateMutability": "view",
      "type": "function"
    },
    {
      "inputs": [],
      "name": "renounceOwnership",
      "outputs": [],
      "stateMutability": "nonpayable",
      "type": "function"
    },
    {
      "inputs": [
        {
          "internalType": "address",
          "name": "newOwner",
          "type": "address"
        }
      ],
      "name": "transferOwnership",
      "outputs": [],
      "stateMutability": "nonpayable",
      "type": "function"
    }
  ],
  "bytecode": "0x608060405234801561001057600080fd5b50604051610f4b380380610f4b8339818101604052604081101561003357600080fd5b810190808051906020019092919080519060200190929190505050600061005e61018d60201b60201c565b9050806000806101000a81548173ffffffffffffffffffffffffffffffffffffffff021916908373ffffffffffffffffffffffffffffffffffffffff1602179055508073ffffffffffffffffffffffffffffffffffffffff16600073ffffffffffffffffffffffffffffffffffffffff167f8be0079c531659141344cd1fd0a4f28419497f9722a3daafe3b4186f6b6457e060405160405180910390a35081600160006101000a81548173ffffffffffffffffffffffffffffffffffffffff021916908373ffffffffffffffffffffffffffffffffffffffff16021790555080600260006101000a81548173ffffffffffffffffffffffffffffffffffffffff021916908373ffffffffffffffffffffffffffffffffffffffff160217905550600a6004819055505050610195565b600033905090565b610da7806101a46000396000f3fe6080604052600436106100555760003560e01c806312065fe01461005a57806314ee93a214610085578063715018a6146100c95780638da5cb5b146100e0578063e9a21bcd14610121578063f2fde38b1461015c575b600080fd5b34801561006657600080fd5b5061006f6101ad565b6040518082815260200191505060405180910390f35b6100c76004803603602081101561009b57600080fd5b81019080803573ffffffffffffffffffffffffffffffffffffffff1690602001909291905050506101b5565b005b3480156100d557600080fd5b506100de61058a565b005b3480156100ec57600080fd5b506100f56106f7565b604051808273ffffffffffffffffffffffffffffffffffffffff16815260200191505060405180910390f35b34801561012d57600080fd5b5061015a6004803603602081101561014457600080fd5b8101908080359060200190929190505050610720565b005b34801561016857600080fd5b506101ab6004803603602081101561017f57600080fd5b81019080803573ffffffffffffffffffffffffffffffffffffffff169060200190929190505050610a6e565b005b600047905090565b600080600160009054906101000a900473ffffffffffffffffffffffffffffffffffffffff1673ffffffffffffffffffffffffffffffffffffffff1663fad3c8e7846040518263ffffffff1660e01b8152600401808273ffffffffffffffffffffffffffffffffffffffff16815260200191505060006040518083038186803b15801561024157600080fd5b505afa158015610255573d6000803e3d6000fd5b505050506040513d6000823e3d601f19601f82011682018060405250606081101561027f57600080fd5b810190808051604051939291908464010000000082111561029f57600080fd5b838201915060208201858111156102b557600080fd5b82518660018202830111640100000000821117156102d257600080fd5b8083526020830192505050908051906020019080838360005b838110156103065780820151818401526020810190506102eb565b50505050905090810190601f1680156103335780820380516001836020036101000a031916815260200191505b50604052602001805190602001909291908051906020019092919050505092509250508134146103ae576040517f08c379a000000000000000000000000000000000000000000000000000000000815260040180806020018281038252602e815260200180610d44602e913960400191505060405180910390fd5b6103b6610c68565b6040518060a001604052803373ffffffffffffffffffffffffffffffffffffffff1681526020018573ffffffffffffffffffffffffffffffffffffffff168152602001848152602001838152602001428152509050600381908060018154018082558091505060019003906000526020600020906005020160009091909190915060008201518160000160006101000a81548173ffffffffffffffffffffffffffffffffffffffff021916908373ffffffffffffffffffffffffffffffffffffffff16021790555060208201518160010160006101000a81548173ffffffffffffffffffffffffffffffffffffffff021916908373ffffffffffffffffffffffffffffffffffffffff160217905550604082015181600201556060820151816003015560808201518160040155505060006001600380549050039050816020015173ffffffffffffffffffffffffffffffffffffffff16826000015173ffffffffffffffffffffffffffffffffffffffff167f5b55842672aaa440d337fd65bb0154c3a00b886297daf13f4f92aea626a9300b838560400151866060015187608001516040518085815260200184815260200183815260200182815260200194505050505060405180910390a35050505050565b610592610c60565b73ffffffffffffffffffffffffffffffffffffffff166105b06106f7565b73ffffffffffffffffffffffffffffffffffffffff1614610639576040517f08c379a00000000000000000000000000000000000000000000000000000000081526004018080602001828103825260208152602001807f4f776e61626c653a2063616c6c6572206973206e6f7420746865206f776e657281525060200191505060405180910390fd5b600073ffffffffffffffffffffffffffffffffffffffff1660008054906101000a900473ffffffffffffffffffffffffffffffffffffffff1673ffffffffffffffffffffffffffffffffffffffff167f8be0079c531659141344cd1fd0a4f28419497f9722a3daafe3b4186f6b6457e060405160405180910390a360008060006101000a81548173ffffffffffffffffffffffffffffffffffffffff021916908373ffffffffffffffffffffffffffffffffffffffff160217905550565b60008060009054906101000a900473ffffffffffffffffffffffffffffffffffffffff16905090565b610728610c68565b6003828154811061073557fe5b90600052602060002090600502016040518060a00160405290816000820160009054906101000a900473ffffffffffffffffffffffffffffffffffffffff1673ffffffffffffffffffffffffffffffffffffffff1673ffffffffffffffffffffffffffffffffffffffff1681526020016001820160009054906101000a900473ffffffffffffffffffffffffffffffffffffffff1673ffffffffffffffffffffffffffffffffffffffff1673ffffffffffffffffffffffffffffffffffffffff168152602001600282015481526020016003820154815260200160048201548152505090503373ffffffffffffffffffffffffffffffffffffffff16816000015173ffffffffffffffffffffffffffffffffffffffff16146108a2576040517f08c379a0000000000000000000000000000000000000000000000000000000008152600401808060200182810382526024815260200180610cea6024913960400191505060405180910390fd5b6201518081606001510281608001510142101561090a576040517f08c379a0000000000000000000000000000000000000000000000000000000008152600401808060200182810382526036815260200180610d0e6036913960400191505060405180910390fd5b3373ffffffffffffffffffffffffffffffffffffffff166108fc82604001519081150290604051600060405180830381858888f19350505050158015610954573d6000803e3d6000fd5b506003828154811061096257fe5b9060005260206000209060050201600080820160006101000a81549073ffffffffffffffffffffffffffffffffffffffff02191690556001820160006101000a81549073ffffffffffffffffffffffffffffffffffffffff02191690556002820160009055600382016000905560048201600090555050806020015173ffffffffffffffffffffffffffffffffffffffff16816000015173ffffffffffffffffffffffffffffffffffffffff167fa59556698ed1cec4208c027a72f38f8304fda166004a4b213383a23999a0cac4848460400151856060015186608001516040518085815260200184815260200183815260200182815260200194505050505060405180910390a35050565b610a76610c60565b73ffffffffffffffffffffffffffffffffffffffff16610a946106f7565b73ffffffffffffffffffffffffffffffffffffffff1614610b1d576040517f08c379a00000000000000000000000000000000000000000000000000000000081526004018080602001828103825260208152602001807f4f776e61626c653a2063616c6c6572206973206e6f7420746865206f776e657281525060200191505060405180910390fd5b600073ffffffffffffffffffffffffffffffffffffffff168173ffffffffffffffffffffffffffffffffffffffff161415610ba3576040517f08c379a0000000000000000000000000000000000000000000000000000000008152600401808060200182810382526026815260200180610cc46026913960400191505060405180910390fd5b8073ffffffffffffffffffffffffffffffffffffffff1660008054906101000a900473ffffffffffffffffffffffffffffffffffffffff1673ffffffffffffffffffffffffffffffffffffffff167f8be0079c531659141344cd1fd0a4f28419497f9722a3daafe3b4186f6b6457e060405160405180910390a3806000806101000a81548173ffffffffffffffffffffffffffffffffffffffff021916908373ffffffffffffffffffffffffffffffffffffffff16021790555050565b600033905090565b6040518060a00160405280600073ffffffffffffffffffffffffffffffffffffffff168152602001600073ffffffffffffffffffffffffffffffffffffffff168152602001600081526020016000815260200160008152509056fe4f776e61626c653a206e6577206f776e657220697320746865207a65726f2061646472657373596f7520617265206e6f7420746865206f776e6572206f66207468652072657175657374596f75206d75737420776169742074686520726573706f6e73652074696d6520746f2064656c6574652074686973207265717565737454686520616d6f756e742070616964206973206e6f7420657175616c20746f207468652073616c65207072696365a2646970667358221220a153ba614dd377b7ac01aac1fbb194e7a350e7b6fb86be377ad23c05ef9c0b2164736f6c63430007030033",
  "linkReferences": {},
  "deployedLinkReferences": {}
}