{
  "_format": "hh-sol-artifact-1",
  "contractName": "AutographRequestContract",
  "sourceName": "contracts/AutographRequestContract.sol",
  "abi": [
    {
      "inputs": [
        {
          "internalType": "address",
          "name": "_celebrityContract",
          "type": "address"
        },
        {
          "internalType": "address",
          "name": "_autographContract",
          "type": "address"
        }
      ],
      "stateMutability": "nonpayable",
      "type": "constructor"
    },
    {
      "anonymous": false,
      "inputs": [
        {
          "indexed": true,
          "internalType": "address",
          "name": "previousOwner",
          "type": "address"
        },
        {
          "indexed": true,
          "internalType": "address",
          "name": "newOwner",
          "type": "address"
        }
      ],
      "name": "OwnershipTransferred",
      "type": "event"
    },
    {
      "anonymous": false,
      "inputs": [
        {
          "indexed": false,
          "internalType": "uint256",
          "name": "id",
          "type": "uint256"
        },
        {
          "indexed": true,
          "internalType": "address",
          "name": "from",
          "type": "address"
        },
        {
          "indexed": true,
          "internalType": "address",
          "name": "to",
          "type": "address"
        },
        {
          "indexed": false,
          "internalType": "uint256",
          "name": "price",
          "type": "uint256"
        },
        {
          "indexed": false,
          "internalType": "uint256",
          "name": "responseTime",
          "type": "uint256"
        },
        {
          "indexed": false,
          "internalType": "uint256",
          "name": "created",
          "type": "uint256"
        }
      ],
      "name": "RequestCreated",
      "type": "event"
    },
    {
      "inputs": [
        {
          "internalType": "address",
          "name": "to",
          "type": "address"
        }
      ],
      "name": "createRequest",
      "outputs": [],
      "stateMutability": "payable",
      "type": "function"
    },
    {
      "inputs": [],
      "name": "getBalance",
      "outputs": [
        {
          "internalType": "uint256",
          "name": "",
          "type": "uint256"
        }
      ],
      "stateMutability": "view",
      "type": "function"
    },
    {
      "inputs": [],
      "name": "owner",
      "outputs": [
        {
          "internalType": "address",
          "name": "",
          "type": "address"
        }
      ],
      "stateMutability": "view",
      "type": "function"
    },
    {
      "inputs": [],
      "name": "renounceOwnership",
      "outputs": [],
      "stateMutability": "nonpayable",
      "type": "function"
    },
    {
      "inputs": [
        {
          "internalType": "address",
          "name": "newOwner",
          "type": "address"
        }
      ],
      "name": "transferOwnership",
      "outputs": [],
      "stateMutability": "nonpayable",
      "type": "function"
    }
  ],
  "bytecode": "0x608060405234801561001057600080fd5b50604051610b5d380380610b5d8339818101604052604081101561003357600080fd5b810190808051906020019092919080519060200190929190505050600061005e61018d60201b60201c565b9050806000806101000a81548173ffffffffffffffffffffffffffffffffffffffff021916908373ffffffffffffffffffffffffffffffffffffffff1602179055508073ffffffffffffffffffffffffffffffffffffffff16600073ffffffffffffffffffffffffffffffffffffffff167f8be0079c531659141344cd1fd0a4f28419497f9722a3daafe3b4186f6b6457e060405160405180910390a35081600160006101000a81548173ffffffffffffffffffffffffffffffffffffffff021916908373ffffffffffffffffffffffffffffffffffffffff16021790555080600260006101000a81548173ffffffffffffffffffffffffffffffffffffffff021916908373ffffffffffffffffffffffffffffffffffffffff160217905550600a6004819055505050610195565b600033905090565b6109b9806101a46000396000f3fe60806040526004361061004a5760003560e01c806312065fe01461004f57806314ee93a21461007a578063715018a6146100be5780638da5cb5b146100d5578063f2fde38b14610116575b600080fd5b34801561005b57600080fd5b50610064610167565b6040518082815260200191505060405180910390f35b6100bc6004803603602081101561009057600080fd5b81019080803573ffffffffffffffffffffffffffffffffffffffff16906020019092919050505061016f565b005b3480156100ca57600080fd5b506100d3610544565b005b3480156100e157600080fd5b506100ea6106b1565b604051808273ffffffffffffffffffffffffffffffffffffffff16815260200191505060405180910390f35b34801561012257600080fd5b506101656004803603602081101561013957600080fd5b81019080803573ffffffffffffffffffffffffffffffffffffffff1690602001909291905050506106da565b005b600047905090565b600080600160009054906101000a900473ffffffffffffffffffffffffffffffffffffffff1673ffffffffffffffffffffffffffffffffffffffff1663fad3c8e7846040518263ffffffff1660e01b8152600401808273ffffffffffffffffffffffffffffffffffffffff16815260200191505060006040518083038186803b1580156101fb57600080fd5b505afa15801561020f573d6000803e3d6000fd5b505050506040513d6000823e3d601f19601f82011682018060405250606081101561023957600080fd5b810190808051604051939291908464010000000082111561025957600080fd5b8382019150602082018581111561026f57600080fd5b825186600182028301116401000000008211171561028c57600080fd5b8083526020830192505050908051906020019080838360005b838110156102c05780820151818401526020810190506102a5565b50505050905090810190601f1680156102ed5780820380516001836020036101000a031916815260200191505b5060405260200180519060200190929190805190602001909291905050509250925050813414610368576040517f08c379a000000000000000000000000000000000000000000000000000000000815260040180806020018281038252602e815260200180610956602e913960400191505060405180910390fd5b6103706108d4565b6040518060a001604052803373ffffffffffffffffffffffffffffffffffffffff1681526020018573ffffffffffffffffffffffffffffffffffffffff168152602001848152602001838152602001428152509050600381908060018154018082558091505060019003906000526020600020906005020160009091909190915060008201518160000160006101000a81548173ffffffffffffffffffffffffffffffffffffffff021916908373ffffffffffffffffffffffffffffffffffffffff16021790555060208201518160010160006101000a81548173ffffffffffffffffffffffffffffffffffffffff021916908373ffffffffffffffffffffffffffffffffffffffff160217905550604082015181600201556060820151816003015560808201518160040155505060006001600380549050039050816020015173ffffffffffffffffffffffffffffffffffffffff16826000015173ffffffffffffffffffffffffffffffffffffffff167f5b55842672aaa440d337fd65bb0154c3a00b886297daf13f4f92aea626a9300b838560400151866060015187608001516040518085815260200184815260200183815260200182815260200194505050505060405180910390a35050505050565b61054c6108cc565b73ffffffffffffffffffffffffffffffffffffffff1661056a6106b1565b73ffffffffffffffffffffffffffffffffffffffff16146105f3576040517f08c379a00000000000000000000000000000000000000000000000000000000081526004018080602001828103825260208152602001807f4f776e61626c653a2063616c6c6572206973206e6f7420746865206f776e657281525060200191505060405180910390fd5b600073ffffffffffffffffffffffffffffffffffffffff1660008054906101000a900473ffffffffffffffffffffffffffffffffffffffff1673ffffffffffffffffffffffffffffffffffffffff167f8be0079c531659141344cd1fd0a4f28419497f9722a3daafe3b4186f6b6457e060405160405180910390a360008060006101000a81548173ffffffffffffffffffffffffffffffffffffffff021916908373ffffffffffffffffffffffffffffffffffffffff160217905550565b60008060009054906101000a900473ffffffffffffffffffffffffffffffffffffffff16905090565b6106e26108cc565b73ffffffffffffffffffffffffffffffffffffffff166107006106b1565b73ffffffffffffffffffffffffffffffffffffffff1614610789576040517f08c379a00000000000000000000000000000000000000000000000000000000081526004018080602001828103825260208152602001807f4f776e61626c653a2063616c6c6572206973206e6f7420746865206f776e657281525060200191505060405180910390fd5b600073ffffffffffffffffffffffffffffffffffffffff168173ffffffffffffffffffffffffffffffffffffffff16141561080f576040517f08c379a00000000000000000000000000000000000000000000000000000000081526004018080602001828103825260268152602001806109306026913960400191505060405180910390fd5b8073ffffffffffffffffffffffffffffffffffffffff1660008054906101000a900473ffffffffffffffffffffffffffffffffffffffff1673ffffffffffffffffffffffffffffffffffffffff167f8be0079c531659141344cd1fd0a4f28419497f9722a3daafe3b4186f6b6457e060405160405180910390a3806000806101000a81548173ffffffffffffffffffffffffffffffffffffffff021916908373ffffffffffffffffffffffffffffffffffffffff16021790555050565b600033905090565b6040518060a00160405280600073ffffffffffffffffffffffffffffffffffffffff168152602001600073ffffffffffffffffffffffffffffffffffffffff168152602001600081526020016000815260200160008152509056fe4f776e61626c653a206e6577206f776e657220697320746865207a65726f206164647265737354686520616d6f756e742070616964206973206e6f7420657175616c20746f207468652073616c65207072696365a2646970667358221220089c718b286fb190f70a2cff60430391ff120707c60da04c4911de677724147864736f6c63430007030033",
  "linkReferences": {},
  "deployedLinkReferences": {}
}