{
  "_format": "hh-sol-artifact-1",
  "contractName": "AutographRequestContract",
  "sourceName": "contracts/AutographRequestContract.sol",
  "abi": [
    {
      "inputs": [
        {
          "internalType": "address",
          "name": "_celebrityContract",
          "type": "address"
        },
        {
          "internalType": "address",
          "name": "_autographContract",
          "type": "address"
        }
      ],
      "stateMutability": "nonpayable",
      "type": "constructor"
    },
    {
      "anonymous": false,
      "inputs": [
        {
          "indexed": true,
          "internalType": "address",
          "name": "previousOwner",
          "type": "address"
        },
        {
          "indexed": true,
          "internalType": "address",
          "name": "newOwner",
          "type": "address"
        }
      ],
      "name": "OwnershipTransferred",
      "type": "event"
    },
    {
      "anonymous": false,
      "inputs": [
        {
          "indexed": false,
          "internalType": "uint256",
          "name": "id",
          "type": "uint256"
        },
        {
          "indexed": true,
          "internalType": "address",
          "name": "from",
          "type": "address"
        },
        {
          "indexed": true,
          "internalType": "address",
          "name": "to",
          "type": "address"
        },
        {
          "indexed": false,
          "internalType": "uint256",
          "name": "price",
          "type": "uint256"
        },
        {
          "indexed": false,
          "internalType": "uint256",
          "name": "responseTime",
          "type": "uint256"
        },
        {
          "indexed": false,
          "internalType": "uint256",
          "name": "created",
          "type": "uint256"
        }
      ],
      "name": "RequestCreated",
      "type": "event"
    },
    {
      "anonymous": false,
      "inputs": [
        {
          "indexed": false,
          "internalType": "uint256",
          "name": "id",
          "type": "uint256"
        },
        {
          "indexed": true,
          "internalType": "address",
          "name": "from",
          "type": "address"
        },
        {
          "indexed": true,
          "internalType": "address",
          "name": "to",
          "type": "address"
        },
        {
          "indexed": false,
          "internalType": "uint256",
          "name": "price",
          "type": "uint256"
        },
        {
          "indexed": false,
          "internalType": "uint256",
          "name": "responseTime",
          "type": "uint256"
        },
        {
          "indexed": false,
          "internalType": "uint256",
          "name": "created",
          "type": "uint256"
        }
      ],
      "name": "RequestDeleted",
      "type": "event"
    },
    {
      "anonymous": false,
      "inputs": [
        {
          "indexed": false,
          "internalType": "uint256",
          "name": "id",
          "type": "uint256"
        },
        {
          "indexed": true,
          "internalType": "address",
          "name": "from",
          "type": "address"
        },
        {
          "indexed": true,
          "internalType": "address",
          "name": "to",
          "type": "address"
        },
        {
          "indexed": false,
          "internalType": "uint256",
          "name": "price",
          "type": "uint256"
        },
        {
          "indexed": false,
          "internalType": "uint256",
          "name": "responseTime",
          "type": "uint256"
        },
        {
          "indexed": false,
          "internalType": "uint256",
          "name": "created",
          "type": "uint256"
        },
        {
          "indexed": false,
          "internalType": "string",
          "name": "nftHash",
          "type": "string"
        },
        {
          "indexed": false,
          "internalType": "string",
          "name": "metadata",
          "type": "string"
        }
      ],
      "name": "RequestSigned",
      "type": "event"
    },
    {
      "inputs": [
        {
          "internalType": "address",
          "name": "to",
          "type": "address"
        }
      ],
      "name": "createRequest",
      "outputs": [],
      "stateMutability": "payable",
      "type": "function"
    },
    {
      "inputs": [
        {
          "internalType": "uint256",
          "name": "id",
          "type": "uint256"
        }
      ],
      "name": "deleteRequest",
      "outputs": [],
      "stateMutability": "nonpayable",
      "type": "function"
    },
    {
      "inputs": [],
      "name": "getBalance",
      "outputs": [
        {
          "internalType": "uint256",
          "name": "",
          "type": "uint256"
        }
      ],
      "stateMutability": "view",
      "type": "function"
    },
    {
      "inputs": [],
      "name": "owner",
      "outputs": [
        {
          "internalType": "address",
          "name": "",
          "type": "address"
        }
      ],
      "stateMutability": "view",
      "type": "function"
    },
    {
      "inputs": [],
      "name": "renounceOwnership",
      "outputs": [],
      "stateMutability": "nonpayable",
      "type": "function"
    },
    {
      "inputs": [
        {
          "internalType": "uint256",
          "name": "id",
          "type": "uint256"
        },
        {
          "internalType": "string",
          "name": "nftHash",
          "type": "string"
        },
        {
          "internalType": "string",
          "name": "metadata",
          "type": "string"
        }
      ],
      "name": "signRequest",
      "outputs": [],
      "stateMutability": "nonpayable",
      "type": "function"
    },
    {
      "inputs": [
        {
          "internalType": "address",
          "name": "newOwner",
          "type": "address"
        }
      ],
      "name": "transferOwnership",
      "outputs": [],
      "stateMutability": "nonpayable",
      "type": "function"
    }
  ],
  "bytecode": "0x608060405234801561001057600080fd5b506040516114c83803806114c88339818101604052604081101561003357600080fd5b810190808051906020019092919080519060200190929190505050600061005e61018d60201b60201c565b9050806000806101000a81548173ffffffffffffffffffffffffffffffffffffffff021916908373ffffffffffffffffffffffffffffffffffffffff1602179055508073ffffffffffffffffffffffffffffffffffffffff16600073ffffffffffffffffffffffffffffffffffffffff167f8be0079c531659141344cd1fd0a4f28419497f9722a3daafe3b4186f6b6457e060405160405180910390a35081600160006101000a81548173ffffffffffffffffffffffffffffffffffffffff021916908373ffffffffffffffffffffffffffffffffffffffff16021790555080600260006101000a81548173ffffffffffffffffffffffffffffffffffffffff021916908373ffffffffffffffffffffffffffffffffffffffff160217905550600a6004819055505050610195565b600033905090565b611324806101a46000396000f3fe6080604052600436106100705760003560e01c8063715018a61161004e578063715018a61461024d5780638da5cb5b14610264578063e9a21bcd146102a5578063f2fde38b146102e057610070565b806312065fe01461007557806314ee93a2146100a05780632686694f146100e4575b600080fd5b34801561008157600080fd5b5061008a610331565b6040518082815260200191505060405180910390f35b6100e2600480360360208110156100b657600080fd5b81019080803573ffffffffffffffffffffffffffffffffffffffff169060200190929190505050610339565b005b3480156100f057600080fd5b5061024b6004803603606081101561010757600080fd5b81019080803590602001909291908035906020019064010000000081111561012e57600080fd5b82018360208201111561014057600080fd5b8035906020019184600183028401116401000000008311171561016257600080fd5b91908080601f016020809104026020016040519081016040528093929190818152602001838380828437600081840152601f19601f820116905080830192505050505050509192919290803590602001906401000000008111156101c557600080fd5b8201836020820111156101d757600080fd5b803590602001918460018302840111640100000000831117156101f957600080fd5b91908080601f016020809104026020016040519081016040528093929190818152602001838380828437600081840152601f19601f82011690508083019250505050505050919291929050505061070e565b005b34801561025957600080fd5b50610262610ab3565b005b34801561027057600080fd5b50610279610c20565b604051808273ffffffffffffffffffffffffffffffffffffffff16815260200191505060405180910390f35b3480156102b157600080fd5b506102de600480360360208110156102c857600080fd5b8101908080359060200190929190505050610c49565b005b3480156102ec57600080fd5b5061032f6004803603602081101561030357600080fd5b81019080803573ffffffffffffffffffffffffffffffffffffffff169060200190929190505050610f97565b005b600047905090565b600080600160009054906101000a900473ffffffffffffffffffffffffffffffffffffffff1673ffffffffffffffffffffffffffffffffffffffff1663fad3c8e7846040518263ffffffff1660e01b8152600401808273ffffffffffffffffffffffffffffffffffffffff16815260200191505060006040518083038186803b1580156103c557600080fd5b505afa1580156103d9573d6000803e3d6000fd5b505050506040513d6000823e3d601f19601f82011682018060405250606081101561040357600080fd5b810190808051604051939291908464010000000082111561042357600080fd5b8382019150602082018581111561043957600080fd5b825186600182028301116401000000008211171561045657600080fd5b8083526020830192505050908051906020019080838360005b8381101561048a57808201518184015260208101905061046f565b50505050905090810190601f1680156104b75780820380516001836020036101000a031916815260200191505b5060405260200180519060200190929190805190602001909291905050509250925050813414610532576040517f08c379a000000000000000000000000000000000000000000000000000000000815260040180806020018281038252602e815260200180611299602e913960400191505060405180910390fd5b61053a611191565b6040518060a001604052803373ffffffffffffffffffffffffffffffffffffffff1681526020018573ffffffffffffffffffffffffffffffffffffffff168152602001848152602001838152602001428152509050600381908060018154018082558091505060019003906000526020600020906005020160009091909190915060008201518160000160006101000a81548173ffffffffffffffffffffffffffffffffffffffff021916908373ffffffffffffffffffffffffffffffffffffffff16021790555060208201518160010160006101000a81548173ffffffffffffffffffffffffffffffffffffffff021916908373ffffffffffffffffffffffffffffffffffffffff160217905550604082015181600201556060820151816003015560808201518160040155505060006001600380549050039050816020015173ffffffffffffffffffffffffffffffffffffffff16826000015173ffffffffffffffffffffffffffffffffffffffff167f5b55842672aaa440d337fd65bb0154c3a00b886297daf13f4f92aea626a9300b838560400151866060015187608001516040518085815260200184815260200183815260200182815260200194505050505060405180910390a35050505050565b610716611191565b6003848154811061072357fe5b90600052602060002090600502016040518060a00160405290816000820160009054906101000a900473ffffffffffffffffffffffffffffffffffffffff1673ffffffffffffffffffffffffffffffffffffffff1673ffffffffffffffffffffffffffffffffffffffff1681526020016001820160009054906101000a900473ffffffffffffffffffffffffffffffffffffffff1673ffffffffffffffffffffffffffffffffffffffff1673ffffffffffffffffffffffffffffffffffffffff168152602001600282015481526020016003820154815260200160048201548152505090503373ffffffffffffffffffffffffffffffffffffffff16816020015173ffffffffffffffffffffffffffffffffffffffff1614610890576040517f08c379a00000000000000000000000000000000000000000000000000000000081526004018080602001828103825260288152602001806112c76028913960400191505060405180910390fd5b80604001514710156108ed576040517f08c379a000000000000000000000000000000000000000000000000000000000815260040180806020018281038252602c8152602001806111ed602c913960400191505060405180910390fd5b6000816020015190508073ffffffffffffffffffffffffffffffffffffffff166108fc83604001519081150290604051600060405180830381858888f19350505050158015610940573d6000803e3d6000fd5b50816020015173ffffffffffffffffffffffffffffffffffffffff16826000015173ffffffffffffffffffffffffffffffffffffffff167fd5f87625b2215dc8c8ef503c4e0a6ac727680967de19505147772caf1e8222e8878560400151866060015187608001518a8a604051808781526020018681526020018581526020018481526020018060200180602001838103835285818151815260200191508051906020019080838360005b83811015610a065780820151818401526020810190506109eb565b50505050905090810190601f168015610a335780820380516001836020036101000a031916815260200191505b50838103825284818151815260200191508051906020019080838360005b83811015610a6c578082015181840152602081019050610a51565b50505050905090810190601f168015610a995780820380516001836020036101000a031916815260200191505b509850505050505050505060405180910390a35050505050565b610abb611189565b73ffffffffffffffffffffffffffffffffffffffff16610ad9610c20565b73ffffffffffffffffffffffffffffffffffffffff1614610b62576040517f08c379a00000000000000000000000000000000000000000000000000000000081526004018080602001828103825260208152602001807f4f776e61626c653a2063616c6c6572206973206e6f7420746865206f776e657281525060200191505060405180910390fd5b600073ffffffffffffffffffffffffffffffffffffffff1660008054906101000a900473ffffffffffffffffffffffffffffffffffffffff1673ffffffffffffffffffffffffffffffffffffffff167f8be0079c531659141344cd1fd0a4f28419497f9722a3daafe3b4186f6b6457e060405160405180910390a360008060006101000a81548173ffffffffffffffffffffffffffffffffffffffff021916908373ffffffffffffffffffffffffffffffffffffffff160217905550565b60008060009054906101000a900473ffffffffffffffffffffffffffffffffffffffff16905090565b610c51611191565b60038281548110610c5e57fe5b90600052602060002090600502016040518060a00160405290816000820160009054906101000a900473ffffffffffffffffffffffffffffffffffffffff1673ffffffffffffffffffffffffffffffffffffffff1673ffffffffffffffffffffffffffffffffffffffff1681526020016001820160009054906101000a900473ffffffffffffffffffffffffffffffffffffffff1673ffffffffffffffffffffffffffffffffffffffff1673ffffffffffffffffffffffffffffffffffffffff168152602001600282015481526020016003820154815260200160048201548152505090503373ffffffffffffffffffffffffffffffffffffffff16816000015173ffffffffffffffffffffffffffffffffffffffff1614610dcb576040517f08c379a000000000000000000000000000000000000000000000000000000000815260040180806020018281038252602481526020018061123f6024913960400191505060405180910390fd5b62015180816060015102816080015101421015610e33576040517f08c379a00000000000000000000000000000000000000000000000000000000081526004018080602001828103825260368152602001806112636036913960400191505060405180910390fd5b3373ffffffffffffffffffffffffffffffffffffffff166108fc82604001519081150290604051600060405180830381858888f19350505050158015610e7d573d6000803e3d6000fd5b5060038281548110610e8b57fe5b9060005260206000209060050201600080820160006101000a81549073ffffffffffffffffffffffffffffffffffffffff02191690556001820160006101000a81549073ffffffffffffffffffffffffffffffffffffffff02191690556002820160009055600382016000905560048201600090555050806020015173ffffffffffffffffffffffffffffffffffffffff16816000015173ffffffffffffffffffffffffffffffffffffffff167fa59556698ed1cec4208c027a72f38f8304fda166004a4b213383a23999a0cac4848460400151856060015186608001516040518085815260200184815260200183815260200182815260200194505050505060405180910390a35050565b610f9f611189565b73ffffffffffffffffffffffffffffffffffffffff16610fbd610c20565b73ffffffffffffffffffffffffffffffffffffffff1614611046576040517f08c379a00000000000000000000000000000000000000000000000000000000081526004018080602001828103825260208152602001807f4f776e61626c653a2063616c6c6572206973206e6f7420746865206f776e657281525060200191505060405180910390fd5b600073ffffffffffffffffffffffffffffffffffffffff168173ffffffffffffffffffffffffffffffffffffffff1614156110cc576040517f08c379a00000000000000000000000000000000000000000000000000000000081526004018080602001828103825260268152602001806112196026913960400191505060405180910390fd5b8073ffffffffffffffffffffffffffffffffffffffff1660008054906101000a900473ffffffffffffffffffffffffffffffffffffffff1673ffffffffffffffffffffffffffffffffffffffff167f8be0079c531659141344cd1fd0a4f28419497f9722a3daafe3b4186f6b6457e060405160405180910390a3806000806101000a81548173ffffffffffffffffffffffffffffffffffffffff021916908373ffffffffffffffffffffffffffffffffffffffff16021790555050565b600033905090565b6040518060a00160405280600073ffffffffffffffffffffffffffffffffffffffff168152602001600073ffffffffffffffffffffffffffffffffffffffff168152602001600081526020016000815260200160008152509056fe42616c616e63652073686f756c642062652067726561746572207468616e20726571756573742070726963654f776e61626c653a206e6577206f776e657220697320746865207a65726f2061646472657373596f7520617265206e6f7420746865206f776e6572206f66207468652072657175657374596f75206d75737420776169742074686520726573706f6e73652074696d6520746f2064656c6574652074686973207265717565737454686520616d6f756e742070616964206973206e6f7420657175616c20746f207468652073616c65207072696365596f7520617265206e6f742074686520726563697069656e74206f66207468652072657175657374a2646970667358221220da7816fcbd172f8bb0a307ebada2901bd9106ba7ffeb5b042dae04cb28104af864736f6c63430007030033",
  "linkReferences": {},
  "deployedLinkReferences": {}
}